{
  "contractName": "Student",
  "abi": [
    {
      "inputs": [],
      "stateMutability": "nonpayable",
      "type": "constructor"
    },
    {
      "inputs": [],
      "name": "age",
      "outputs": [
        {
          "internalType": "uint256",
          "name": "",
          "type": "uint256"
        }
      ],
      "stateMutability": "view",
      "type": "function",
      "constant": true
    },
    {
      "inputs": [],
      "name": "isStudent",
      "outputs": [
        {
          "internalType": "bool",
          "name": "",
          "type": "bool"
        }
      ],
      "stateMutability": "view",
      "type": "function",
      "constant": true
    },
    {
      "inputs": [],
      "name": "last_completed_migration",
      "outputs": [
        {
          "internalType": "uint256",
          "name": "",
          "type": "uint256"
        }
      ],
      "stateMutability": "view",
      "type": "function",
      "constant": true
    },
    {
      "inputs": [],
      "name": "name",
      "outputs": [
        {
          "internalType": "string",
          "name": "",
          "type": "string"
        }
      ],
      "stateMutability": "view",
      "type": "function",
      "constant": true
    },
    {
      "inputs": [],
      "name": "owner",
      "outputs": [
        {
          "internalType": "address",
          "name": "",
          "type": "address"
        }
      ],
      "stateMutability": "view",
      "type": "function",
      "constant": true
    },
    {
      "inputs": [
        {
          "internalType": "string",
          "name": "_name",
          "type": "string"
        },
        {
          "internalType": "uint256",
          "name": "_age",
          "type": "uint256"
        },
        {
          "internalType": "bool",
          "name": "_isStudent",
          "type": "bool"
        }
      ],
      "name": "setStudent",
      "outputs": [],
      "stateMutability": "nonpayable",
      "type": "function"
    },
    {
      "inputs": [],
      "name": "getStudent",
      "outputs": [
        {
          "internalType": "string",
          "name": "_name",
          "type": "string"
        },
        {
          "internalType": "uint256",
          "name": "_age",
          "type": "uint256"
        },
        {
          "internalType": "bool",
          "name": "_isStudent",
          "type": "bool"
        }
      ],
      "stateMutability": "view",
      "type": "function",
      "constant": true
    },
    {
      "inputs": [],
      "name": "getCompleted",
      "outputs": [
        {
          "internalType": "uint256",
          "name": "completed",
          "type": "uint256"
        }
      ],
      "stateMutability": "view",
      "type": "function",
      "constant": true
    }
  ],
  "bytecode": "0x6080604052336000806101000a81548173ffffffffffffffffffffffffffffffffffffffff021916908373ffffffffffffffffffffffffffffffffffffffff16021790555034801561005057600080fd5b506040518060400160405280600381526020017f416c6900000000000000000000000000000000000000000000000000000000008152506002908051906020019061009c9291906100ce565b5060116003819055506001600460006101000a81548160ff0219169083151502179055506101a46001819055506101d2565b8280546100da906101a0565b90600052602060002090601f0160209004810192826100fc5760008555610143565b82601f1061011557805160ff1916838001178555610143565b82800160010185558215610143579182015b82811115610142578251825591602001919060010190610127565b5b5090506101509190610154565b5090565b5b8082111561016d576000816000905550600101610155565b5090565b7f4e487b7100000000000000000000000000000000000000000000000000000000600052602260045260246000fd5b600060028204905060018216806101b857607f821691505b602082108114156101cc576101cb610171565b5b50919050565b610897806101e16000396000f3fe608060405234801561001057600080fd5b50600436106100885760003560e01c806351e0a6eb1161005b57806351e0a6eb146101035780635b54f982146101215780638da5cb5b1461013f578063b439548d1461015d57610088565b806306fdde031461008d57806319044f07146100ab578063262a9dff146100c7578063445df0ac146100e5575b600080fd5b61009561017d565b6040516100a2919061050d565b60405180910390f35b6100c560048036038101906100c0919061060c565b61020b565b005b6100cf610244565b6040516100dc919061068f565b60405180910390f35b6100ed61024a565b6040516100fa919061068f565b60405180910390f35b61010b610250565b60405161011891906106b9565b60405180910390f35b610129610263565b604051610136919061068f565b60405180910390f35b6101476102fc565b6040516101549190610715565b60405180910390f35b610165610320565b60405161017493929190610730565b60405180910390f35b6002805461018a9061079d565b80601f01602080910402602001604051908101604052809291908181526020018280546101b69061079d565b80156102035780601f106101d857610100808354040283529160200191610203565b820191906000526020600020905b8154815290600101906020018083116101e657829003601f168201915b505050505081565b83836002919061021c9291906103d1565b508160038190555080600460006101000a81548160ff02191690831515021790555050505050565b60035481565b60015481565b600460009054906101000a900460ff1681565b60008060009054906101000a900473ffffffffffffffffffffffffffffffffffffffff1673ffffffffffffffffffffffffffffffffffffffff163373ffffffffffffffffffffffffffffffffffffffff16146102f4576040517f08c379a00000000000000000000000000000000000000000000000000000000081526004016102eb90610841565b60405180910390fd5b600154905090565b60008054906101000a900473ffffffffffffffffffffffffffffffffffffffff1681565b60606000806002600354600460009054906101000a900460ff168280546103469061079d565b80601f01602080910402602001604051908101604052809291908181526020018280546103729061079d565b80156103bf5780601f10610394576101008083540402835291602001916103bf565b820191906000526020600020905b8154815290600101906020018083116103a257829003601f168201915b50505050509250925092509250909192565b8280546103dd9061079d565b90600052602060002090601f0160209004810192826103ff5760008555610446565b82601f1061041857803560ff1916838001178555610446565b82800160010185558215610446579182015b8281111561044557823582559160200191906001019061042a565b5b5090506104539190610457565b5090565b5b80821115610470576000816000905550600101610458565b5090565b600081519050919050565b600082825260208201905092915050565b60005b838110156104ae578082015181840152602081019050610493565b838111156104bd576000848401525b50505050565b6000601f19601f8301169050919050565b60006104df82610474565b6104e9818561047f565b93506104f9818560208601610490565b610502816104c3565b840191505092915050565b6000602082019050818103600083015261052781846104d4565b905092915050565b600080fd5b600080fd5b600080fd5b600080fd5b600080fd5b60008083601f84011261055e5761055d610539565b5b8235905067ffffffffffffffff81111561057b5761057a61053e565b5b60208301915083600182028301111561059757610596610543565b5b9250929050565b6000819050919050565b6105b18161059e565b81146105bc57600080fd5b50565b6000813590506105ce816105a8565b92915050565b60008115159050919050565b6105e9816105d4565b81146105f457600080fd5b50565b600081359050610606816105e0565b92915050565b600080600080606085870312156106265761062561052f565b5b600085013567ffffffffffffffff81111561064457610643610534565b5b61065087828801610548565b94509450506020610663878288016105bf565b9250506040610674878288016105f7565b91505092959194509250565b6106898161059e565b82525050565b60006020820190506106a46000830184610680565b92915050565b6106b3816105d4565b82525050565b60006020820190506106ce60008301846106aa565b92915050565b600073ffffffffffffffffffffffffffffffffffffffff82169050919050565b60006106ff826106d4565b9050919050565b61070f816106f4565b82525050565b600060208201905061072a6000830184610706565b92915050565b6000606082019050818103600083015261074a81866104d4565b90506107596020830185610680565b61076660408301846106aa565b949350505050565b7f4e487b7100000000000000000000000000000000000000000000000000000000600052602260045260246000fd5b600060028204905060018216806107b557607f821691505b602082108114156107c9576107c861076e565b5b50919050565b7f546869732066756e6374696f6e206973207265737472696374656420746f207460008201527f686520636f6e74726163742773206f776e657200000000000000000000000000602082015250565b600061082b60338361047f565b9150610836826107cf565b604082019050919050565b6000602082019050818103600083015261085a8161081e565b905091905056fea26469706673582212200910656929812597755bb20d0c8138b39cc30689ce6d11649beb965f8ae49a2264736f6c634300080b0033",
  "immutableReferences": {},
  "source": "// SPDX-License-Identifier: MIT\npragma solidity >=0.4.22 <0.9.0;\n\ncontract Student {\n  address public owner = msg.sender;\n  uint public last_completed_migration;\n\n  string public name;\n  uint public age;\n  bool public isStudent;\n\nconstructor(){\n    name=\"Ali\";\n    age=17;\n    isStudent=true;\n    last_completed_migration=420;\n}\nmodifier restricted() {\n    require(\n      msg.sender == owner,\n      \"This function is restricted to the contract's owner\"\n    );\n    _;\n  }   \n  function setStudent(string calldata _name,uint _age,bool _isStudent) public  {\n    name =_name;\n    age=_age;\n    isStudent=_isStudent;\n  }\n  function getStudent() public view returns(string memory _name,uint _age,bool _isStudent)  {\n   return(name,age,isStudent);\n  }\n\n  function getCompleted() public view restricted returns(uint completed)  {\n    return last_completed_migration;\n  }\n}\n",
  "sourcePath": "/home/node01/unit_test_eth/contracts/student.sol",
  "compiler": {
    "name": "solc",
    "version": "0.8.11+commit.d7f03943.Emscripten.clang"
  },
  "schemaVersion": "3.4.4",
  "updatedAt": "2022-02-01T12:05:46.424Z",
  "networkType": "ethereum",
  "devdoc": {
    "kind": "dev",
    "methods": {},
    "version": 1
  },
  "userdoc": {
    "kind": "user",
    "methods": {},
    "version": 1
  }
}