{
  "contractName": "Student",
  "abi": [
    {
      "inputs": [
        {
          "internalType": "int256",
          "name": "_age",
          "type": "int256"
        },
        {
          "internalType": "string",
          "name": "_name",
          "type": "string"
        },
        {
          "internalType": "bool",
          "name": "_isStudent",
          "type": "bool"
        }
      ],
      "name": "setStudentInfo",
      "outputs": [],
      "stateMutability": "nonpayable",
      "type": "function"
    },
    {
      "inputs": [],
      "name": "getStudentInfo",
      "outputs": [
        {
          "internalType": "int256",
          "name": "",
          "type": "int256"
        },
        {
          "internalType": "string",
          "name": "",
          "type": "string"
        },
        {
          "internalType": "bool",
          "name": "",
          "type": "bool"
        }
      ],
      "stateMutability": "view",
      "type": "function",
      "constant": true
    }
  ],
  "bytecode": "0x608060405234801561001057600080fd5b506104e1806100206000396000f3fe608060405234801561001057600080fd5b50600436106100365760003560e01c8063a1e68c521461003b578063cd6c887e1461005b575b600080fd5b610043610077565b604051610052939291906102d1565b60405180910390f35b610075600480360381019061007091906103d6565b610128565b005b60006060600080546001600260149054906101000a900460ff1681805461009d90610479565b80601f01602080910402602001604051908101604052809291908181526020018280546100c990610479565b80156101165780601f106100eb57610100808354040283529160200191610116565b820191906000526020600020905b8154815290600101906020018083116100f957829003601f168201915b50505050509150925092509250909192565b828260019190610139929190610161565b508360008190555080600260146101000a81548160ff02191690831515021790555050505050565b82805461016d90610479565b90600052602060002090601f01602090048101928261018f57600085556101d6565b82601f106101a857803560ff19168380011785556101d6565b828001600101855582156101d6579182015b828111156101d55782358255916020019190600101906101ba565b5b5090506101e391906101e7565b5090565b5b808211156102005760008160009055506001016101e8565b5090565b6000819050919050565b61021781610204565b82525050565b600081519050919050565b600082825260208201905092915050565b60005b8381101561025757808201518184015260208101905061023c565b83811115610266576000848401525b50505050565b6000601f19601f8301169050919050565b60006102888261021d565b6102928185610228565b93506102a2818560208601610239565b6102ab8161026c565b840191505092915050565b60008115159050919050565b6102cb816102b6565b82525050565b60006060820190506102e6600083018661020e565b81810360208301526102f8818561027d565b905061030760408301846102c2565b949350505050565b600080fd5b600080fd5b61032281610204565b811461032d57600080fd5b50565b60008135905061033f81610319565b92915050565b600080fd5b600080fd5b600080fd5b60008083601f84011261036a57610369610345565b5b8235905067ffffffffffffffff8111156103875761038661034a565b5b6020830191508360018202830111156103a3576103a261034f565b5b9250929050565b6103b3816102b6565b81146103be57600080fd5b50565b6000813590506103d0816103aa565b92915050565b600080600080606085870312156103f0576103ef61030f565b5b60006103fe87828801610330565b945050602085013567ffffffffffffffff81111561041f5761041e610314565b5b61042b87828801610354565b9350935050604061043e878288016103c1565b91505092959194509250565b7f4e487b7100000000000000000000000000000000000000000000000000000000600052602260045260246000fd5b6000600282049050600182168061049157607f821691505b602082108114156104a5576104a461044a565b5b5091905056fea264697066735822122096f5f342ff5465b1fa23212ccd332119e9c1ad0627930eb4c80ac3841a59964764736f6c634300080b0033",
  "immutableReferences": {},
  "source": "// SPDX-License-Identifier: MIT\npragma solidity >=0.4.22 <0.9.0;\n\n\ncontract Student {\nint private age;\nstring private name;\naddress private owner;\nbool private isStudent;\n\n\nfunction setStudentInfo(int _age, string calldata _name, bool _isStudent) public{\n\n    name=_name;\n    age=_age;\n    isStudent=_isStudent;\n}\n\n\nfunction getStudentInfo() public view returns( int ,string memory,bool){\n    return(age,name,isStudent);\n}\n\n\n}\n",
  "sourcePath": "/home/node01/ganache_test/contracts/hello.sol",
  "compiler": {
    "name": "solc",
    "version": "0.8.11+commit.d7f03943.Emscripten.clang"
  },
  "schemaVersion": "3.4.4",
  "updatedAt": "2022-01-27T12:08:40.599Z",
  "networkType": "ethereum",
  "devdoc": {
    "kind": "dev",
    "methods": {},
    "version": 1
  },
  "userdoc": {
    "kind": "user",
    "methods": {},
    "version": 1
  }
}