{
  "contractName": "Candidate",
  "abi": [
    {
      "inputs": [
        {
          "internalType": "address",
          "name": "_electionComission",
          "type": "address"
        }
      ],
      "stateMutability": "nonpayable",
      "type": "constructor"
    },
    {
      "inputs": [
        {
          "internalType": "string",
          "name": "_fname",
          "type": "string"
        },
        {
          "internalType": "string",
          "name": "_lname",
          "type": "string"
        },
        {
          "internalType": "string",
          "name": "_partyName",
          "type": "string"
        },
        {
          "internalType": "string",
          "name": "_partySymbol",
          "type": "string"
        },
        {
          "internalType": "address",
          "name": "_address",
          "type": "address"
        }
      ],
      "name": "insertCandidate",
      "outputs": [],
      "stateMutability": "nonpayable",
      "type": "function"
    },
    {
      "inputs": [
        {
          "internalType": "string",
          "name": "_partyName",
          "type": "string"
        }
      ],
      "name": "getCandidateByPartyName",
      "outputs": [
        {
          "components": [
            {
              "internalType": "string",
              "name": "fName",
              "type": "string"
            },
            {
              "internalType": "string",
              "name": "lName",
              "type": "string"
            },
            {
              "internalType": "string",
              "name": "partyName",
              "type": "string"
            },
            {
              "internalType": "string",
              "name": "partySymbol",
              "type": "string"
            },
            {
              "internalType": "address",
              "name": "ethereumAccount",
              "type": "address"
            }
          ],
          "internalType": "struct Candidate.candidateStruct",
          "name": "candidateStruct_obj",
          "type": "tuple"
        }
      ],
      "stateMutability": "view",
      "type": "function"
    },
    {
      "inputs": [
        {
          "internalType": "string",
          "name": "_partyName",
          "type": "string"
        }
      ],
      "name": "getCandidateAddress",
      "outputs": [
        {
          "internalType": "address",
          "name": "_address",
          "type": "address"
        }
      ],
      "stateMutability": "view",
      "type": "function"
    },
    {
      "inputs": [
        {
          "internalType": "address",
          "name": "_address",
          "type": "address"
        }
      ],
      "name": "getCandidateByAddress",
      "outputs": [
        {
          "components": [
            {
              "internalType": "string",
              "name": "fName",
              "type": "string"
            },
            {
              "internalType": "string",
              "name": "lName",
              "type": "string"
            },
            {
              "internalType": "string",
              "name": "partyName",
              "type": "string"
            },
            {
              "internalType": "string",
              "name": "partySymbol",
              "type": "string"
            },
            {
              "internalType": "address",
              "name": "ethereumAccount",
              "type": "address"
            }
          ],
          "internalType": "struct Candidate.candidateStruct",
          "name": "candidateStruct_obj",
          "type": "tuple"
        }
      ],
      "stateMutability": "view",
      "type": "function"
    },
    {
      "inputs": [],
      "name": "getAllCandidatePartName",
      "outputs": [
        {
          "internalType": "string[]",
          "name": "_partyNames",
          "type": "string[]"
        }
      ],
      "stateMutability": "view",
      "type": "function"
    }
  ],
  "bytecode": "0x60806040523480156200001157600080fd5b50604051620015b5380380620015b58339818101604052810190620000379190620000f1565b80600360006101000a81548173ffffffffffffffffffffffffffffffffffffffff021916908373ffffffffffffffffffffffffffffffffffffffff16021790555060006002819055505062000123565b600080fd5b600073ffffffffffffffffffffffffffffffffffffffff82169050919050565b6000620000b9826200008c565b9050919050565b620000cb81620000ac565b8114620000d757600080fd5b50565b600081519050620000eb81620000c0565b92915050565b6000602082840312156200010a576200010962000087565b5b60006200011a84828501620000da565b91505092915050565b61148280620001336000396000f3fe608060405234801561001057600080fd5b50600436106100575760003560e01c80630ed447651461005c57806323a5f1dc1461007a578063a02d369714610096578063ad25e829146100c6578063f09607ef146100f6575b600080fd5b610064610126565b6040516100719190610ec5565b60405180910390f35b610094600480360381019061008f9190610fb4565b610270565b005b6100b060048036038101906100ab91906110b0565b6105ee565b6040516100bd9190611197565b60405180910390f35b6100e060048036038101906100db91906111b9565b6108ee565b6040516100ed9190611197565b60405180910390f35b610110600480360381019061010b91906110b0565b610c0d565b60405161011d91906111f5565b60405180910390f35b606060048054905067ffffffffffffffff81111561014757610146611210565b5b60405190808252806020026020018201604052801561017a57816020015b60608152602001906001900390816101655790505b50905060005b60048054905081101561026c57600481815481106101a1576101a061123f565b5b906000526020600020906005020160020180546101bd9061129d565b80601f01602080910402602001604051908101604052809291908181526020018280546101e99061129d565b80156102365780601f1061020b57610100808354040283529160200191610236565b820191906000526020600020905b81548152906001019060200180831161021957829003601f168201915b505050505082828151811061024e5761024d61123f565b5b6020026020010181905250808061026490611308565b915050610180565b5090565b600360009054906101000a900473ffffffffffffffffffffffffffffffffffffffff1673ffffffffffffffffffffffffffffffffffffffff163373ffffffffffffffffffffffffffffffffffffffff1614610300576040517f08c379a00000000000000000000000000000000000000000000000000000000081526004016102f7906113d4565b60405180910390fd5b610308610c82565b89898080601f016020809104026020016040519081016040528093929190818152602001838380828437600081840152601f19601f82011690508083019250505050505050816000018190525087878080601f016020809104026020016040519081016040528093929190818152602001838380828437600081840152601f19601f82011690508083019250505050505050816020018190525085858080601f016020809104026020016040519081016040528093929190818152602001838380828437600081840152601f19601f82011690508083019250505050505050816040018190525083838080601f016020809104026020016040519081016040528093929190818152602001838380828437600081840152601f19601f82011690508083019250505050505050816060018190525081816080019073ffffffffffffffffffffffffffffffffffffffff16908173ffffffffffffffffffffffffffffffffffffffff168152505060025460008787604051610489929190611433565b908152602001604051809103902081905550600254600160008473ffffffffffffffffffffffffffffffffffffffff1673ffffffffffffffffffffffffffffffffffffffff16815260200190815260200160002081905550600260008154809291906104f490611308565b919050555060048190806001815401808255809150506001900390600052602060002090600502016000909190919091506000820151816000019080519060200190610541929190610cc7565b50602082015181600101908051906020019061055e929190610cc7565b50604082015181600201908051906020019061057b929190610cc7565b506060820151816003019080519060200190610598929190610cc7565b5060808201518160040160006101000a81548173ffffffffffffffffffffffffffffffffffffffff021916908373ffffffffffffffffffffffffffffffffffffffff160217905550505050505050505050505050565b6105f6610c82565b6000808484604051610609929190611433565b90815260200160405180910390205490506004818154811061062e5761062d61123f565b5b90600052602060002090600502016040518060a00160405290816000820180546106579061129d565b80601f01602080910402602001604051908101604052809291908181526020018280546106839061129d565b80156106d05780601f106106a5576101008083540402835291602001916106d0565b820191906000526020600020905b8154815290600101906020018083116106b357829003601f168201915b505050505081526020016001820180546106e99061129d565b80601f01602080910402602001604051908101604052809291908181526020018280546107159061129d565b80156107625780601f1061073757610100808354040283529160200191610762565b820191906000526020600020905b81548152906001019060200180831161074557829003601f168201915b5050505050815260200160028201805461077b9061129d565b80601f01602080910402602001604051908101604052809291908181526020018280546107a79061129d565b80156107f45780601f106107c9576101008083540402835291602001916107f4565b820191906000526020600020905b8154815290600101906020018083116107d757829003601f168201915b5050505050815260200160038201805461080d9061129d565b80601f01602080910402602001604051908101604052809291908181526020018280546108399061129d565b80156108865780601f1061085b57610100808354040283529160200191610886565b820191906000526020600020905b81548152906001019060200180831161086957829003601f168201915b505050505081526020016004820160009054906101000a900473ffffffffffffffffffffffffffffffffffffffff1673ffffffffffffffffffffffffffffffffffffffff1673ffffffffffffffffffffffffffffffffffffffff168152505091505092915050565b6108f6610c82565b6000600160008473ffffffffffffffffffffffffffffffffffffffff1673ffffffffffffffffffffffffffffffffffffffff1681526020019081526020016000205490506004818154811061094e5761094d61123f565b5b90600052602060002090600502016040518060a00160405290816000820180546109779061129d565b80601f01602080910402602001604051908101604052809291908181526020018280546109a39061129d565b80156109f05780601f106109c5576101008083540402835291602001916109f0565b820191906000526020600020905b8154815290600101906020018083116109d357829003601f168201915b50505050508152602001600182018054610a099061129d565b80601f0160208091040260200160405190810160405280929190818152602001828054610a359061129d565b8015610a825780601f10610a5757610100808354040283529160200191610a82565b820191906000526020600020905b815481529060010190602001808311610a6557829003601f168201915b50505050508152602001600282018054610a9b9061129d565b80601f0160208091040260200160405190810160405280929190818152602001828054610ac79061129d565b8015610b145780601f10610ae957610100808354040283529160200191610b14565b820191906000526020600020905b815481529060010190602001808311610af757829003601f168201915b50505050508152602001600382018054610b2d9061129d565b80601f0160208091040260200160405190810160405280929190818152602001828054610b599061129d565b8015610ba65780601f10610b7b57610100808354040283529160200191610ba6565b820191906000526020600020905b815481529060010190602001808311610b8957829003601f168201915b505050505081526020016004820160009054906101000a900473ffffffffffffffffffffffffffffffffffffffff1673ffffffffffffffffffffffffffffffffffffffff1673ffffffffffffffffffffffffffffffffffffffff1681525050915050919050565b60008060008484604051610c22929190611433565b908152602001604051809103902054905060048181548110610c4757610c4661123f565b5b906000526020600020906005020160040160009054906101000a900473ffffffffffffffffffffffffffffffffffffffff1691505092915050565b6040518060a0016040528060608152602001606081526020016060815260200160608152602001600073ffffffffffffffffffffffffffffffffffffffff1681525090565b828054610cd39061129d565b90600052602060002090601f016020900481019282610cf55760008555610d3c565b82601f10610d0e57805160ff1916838001178555610d3c565b82800160010185558215610d3c579182015b82811115610d3b578251825591602001919060010190610d20565b5b509050610d499190610d4d565b5090565b5b80821115610d66576000816000905550600101610d4e565b5090565b600081519050919050565b600082825260208201905092915050565b6000819050602082019050919050565b600081519050919050565b600082825260208201905092915050565b60005b83811015610dd0578082015181840152602081019050610db5565b83811115610ddf576000848401525b50505050565b6000601f19601f8301169050919050565b6000610e0182610d96565b610e0b8185610da1565b9350610e1b818560208601610db2565b610e2481610de5565b840191505092915050565b6000610e3b8383610df6565b905092915050565b6000602082019050919050565b6000610e5b82610d6a565b610e658185610d75565b935083602082028501610e7785610d86565b8060005b85811015610eb35784840389528151610e948582610e2f565b9450610e9f83610e43565b925060208a01995050600181019050610e7b565b50829750879550505050505092915050565b60006020820190508181036000830152610edf8184610e50565b905092915050565b600080fd5b600080fd5b600080fd5b600080fd5b600080fd5b60008083601f840112610f1657610f15610ef1565b5b8235905067ffffffffffffffff811115610f3357610f32610ef6565b5b602083019150836001820283011115610f4f57610f4e610efb565b5b9250929050565b600073ffffffffffffffffffffffffffffffffffffffff82169050919050565b6000610f8182610f56565b9050919050565b610f9181610f76565b8114610f9c57600080fd5b50565b600081359050610fae81610f88565b92915050565b600080600080600080600080600060a08a8c031215610fd657610fd5610ee7565b5b60008a013567ffffffffffffffff811115610ff457610ff3610eec565b5b6110008c828d01610f00565b995099505060208a013567ffffffffffffffff81111561102357611022610eec565b5b61102f8c828d01610f00565b975097505060408a013567ffffffffffffffff81111561105257611051610eec565b5b61105e8c828d01610f00565b955095505060608a013567ffffffffffffffff81111561108157611080610eec565b5b61108d8c828d01610f00565b935093505060806110a08c828d01610f9f565b9150509295985092959850929598565b600080602083850312156110c7576110c6610ee7565b5b600083013567ffffffffffffffff8111156110e5576110e4610eec565b5b6110f185828601610f00565b92509250509250929050565b61110681610f76565b82525050565b600060a08301600083015184820360008601526111298282610df6565b915050602083015184820360208601526111438282610df6565b9150506040830151848203604086015261115d8282610df6565b915050606083015184820360608601526111778282610df6565b915050608083015161118c60808601826110fd565b508091505092915050565b600060208201905081810360008301526111b1818461110c565b905092915050565b6000602082840312156111cf576111ce610ee7565b5b60006111dd84828501610f9f565b91505092915050565b6111ef81610f76565b82525050565b600060208201905061120a60008301846111e6565b92915050565b7f4e487b7100000000000000000000000000000000000000000000000000000000600052604160045260246000fd5b7f4e487b7100000000000000000000000000000000000000000000000000000000600052603260045260246000fd5b7f4e487b7100000000000000000000000000000000000000000000000000000000600052602260045260246000fd5b600060028204905060018216806112b557607f821691505b602082108114156112c9576112c861126e565b5b50919050565b7f4e487b7100000000000000000000000000000000000000000000000000000000600052601160045260246000fd5b6000819050919050565b6000611313826112fe565b91507fffffffffffffffffffffffffffffffffffffffffffffffffffffffffffffffff821415611346576113456112cf565b5b600182019050919050565b600082825260208201905092915050565b7f596f7520646964206e6f7420616c6c6f7720746f20696e736572742043616e6460008201527f6964617465000000000000000000000000000000000000000000000000000000602082015250565b60006113be602583611351565b91506113c982611362565b604082019050919050565b600060208201905081810360008301526113ed816113b1565b9050919050565b600081905092915050565b82818337600083830152505050565b600061141a83856113f4565b93506114278385846113ff565b82840190509392505050565b600061144082848661140e565b9150819050939250505056fea2646970667358221220c2b93fd0acb43c7931d437fed200887ba9670257273d8781c6db9c6b1a4ed38364736f6c634300080b0033",
  "immutableReferences": {},
  "source": "// SPDX-License-Identifier: MIT\npragma solidity >=0.4.22 <0.9.0;\n\n\ncontract Candidate {\n\n    struct  candidateStruct{\n        string fName;\n        string lName;\n        string partyName;\n        string partySymbol;\n        address ethereumAccount;\n    }\n\n    mapping(string => uint) private partyname_index;\n    mapping(address => uint) private address_index;\n\n    uint private count;\n    address private electionComission;\n\n    candidateStruct[] private candidateStruct_arr;\n\n    constructor( address _electionComission) {\n        electionComission=_electionComission;\n        count=0;\n    }\n\n    function insertCandidate(string calldata _fname,string calldata _lname,string calldata _partyName,string calldata _partySymbol,address  _address)  external {\n        require (msg.sender==electionComission,\"You did not allow to insert Candidate\");\n        candidateStruct memory candidateStruct_obj;\n        candidateStruct_obj.fName=_fname;\n        candidateStruct_obj.lName=_lname;\n        candidateStruct_obj.partyName=_partyName;\n        candidateStruct_obj.partySymbol=_partySymbol;\n        candidateStruct_obj.ethereumAccount=_address;\n        partyname_index[_partyName]=count;\n        address_index[_address]=count;\n        count++;\n        candidateStruct_arr.push(candidateStruct_obj);\n\n    }\n\n    function getCandidateByPartyName(string calldata _partyName) public view returns(candidateStruct memory candidateStruct_obj){\n     uint i = partyname_index[_partyName];\n     return candidateStruct_arr[i];    \n    }\n\n    function getCandidateAddress(string calldata _partyName) public view returns(address  _address){\n     uint i = partyname_index[_partyName];\n     return candidateStruct_arr[i].ethereumAccount;    \n    }\n\n    function getCandidateByAddress(address  _address) public view returns(candidateStruct memory candidateStruct_obj){\n     uint i = address_index[_address];\n     return candidateStruct_arr[i];    \n    }\n\n    function getAllCandidatePartName() public view returns(string[]  memory _partyNames){\n    _partyNames =new string[](candidateStruct_arr.length);\n        for (uint i=0;i<candidateStruct_arr.length;i++){\n            _partyNames[i]=candidateStruct_arr[i].partyName;\n        }\n        return _partyNames;\n    }\n}",
  "sourcePath": "/home/node01/election_eth/contracts/Candidate.sol",
  "compiler": {
    "name": "solc",
    "version": "0.8.11+commit.d7f03943.Emscripten.clang"
  },
  "schemaVersion": "3.4.4",
  "updatedAt": "2022-01-31T11:37:27.315Z",
  "devdoc": {
    "kind": "dev",
    "methods": {},
    "version": 1
  },
  "userdoc": {
    "kind": "user",
    "methods": {},
    "version": 1
  }
}