{
  "contractName": "ElectionComission",
  "abi": [
    {
      "inputs": [],
      "stateMutability": "nonpayable",
      "type": "constructor"
    },
    {
      "inputs": [],
      "name": "getCandidateContractAddress",
      "outputs": [
        {
          "internalType": "address",
          "name": "_candidateObj",
          "type": "address"
        }
      ],
      "stateMutability": "view",
      "type": "function",
      "constant": true
    },
    {
      "inputs": [],
      "name": "getVoterContractAddress",
      "outputs": [
        {
          "internalType": "address",
          "name": "_voterObj",
          "type": "address"
        }
      ],
      "stateMutability": "view",
      "type": "function",
      "constant": true
    },
    {
      "inputs": [
        {
          "internalType": "string",
          "name": "_fname",
          "type": "string"
        },
        {
          "internalType": "string",
          "name": "_lname",
          "type": "string"
        },
        {
          "internalType": "string",
          "name": "_partyName",
          "type": "string"
        },
        {
          "internalType": "string",
          "name": "_partySymbol",
          "type": "string"
        },
        {
          "internalType": "address",
          "name": "_address",
          "type": "address"
        }
      ],
      "name": "insertNewCandidate",
      "outputs": [],
      "stateMutability": "nonpayable",
      "type": "function"
    }
  ],
  "bytecode": "0x608060405234801561001057600080fd5b50336000806101000a81548173ffffffffffffffffffffffffffffffffffffffff021916908373ffffffffffffffffffffffffffffffffffffffff1602179055503060405161005e90610160565b61006891906101bb565b604051809103906000f080158015610084573d6000803e3d6000fd5b50600160006101000a81548173ffffffffffffffffffffffffffffffffffffffff021916908373ffffffffffffffffffffffffffffffffffffffff160217905550600160009054906101000a900473ffffffffffffffffffffffffffffffffffffffff166040516100f49061016d565b6100fe91906101bb565b604051809103906000f08015801561011a573d6000803e3d6000fd5b50600260006101000a81548173ffffffffffffffffffffffffffffffffffffffff021916908373ffffffffffffffffffffffffffffffffffffffff1602179055506101d6565b6115b58061077783390190565b61119580611d2c83390190565b600073ffffffffffffffffffffffffffffffffffffffff82169050919050565b60006101a58261017a565b9050919050565b6101b58161019a565b82525050565b60006020820190506101d060008301846101ac565b92915050565b610592806101e56000396000f3fe608060405234801561001057600080fd5b50600436106100415760003560e01c806306a28b5114610046578063680f318c14610062578063c5ce8bcf14610080575b600080fd5b610060600480360381019061005b91906102f5565b61009e565b005b61006a6101d4565b6040516100779190610400565b60405180910390f35b6100886101fe565b6040516100959190610400565b60405180910390f35b60008054906101000a900473ffffffffffffffffffffffffffffffffffffffff1673ffffffffffffffffffffffffffffffffffffffff163373ffffffffffffffffffffffffffffffffffffffff161461012c576040517f08c379a000000000000000000000000000000000000000000000000000000000815260040161012390610478565b60405180910390fd5b600160009054906101000a900473ffffffffffffffffffffffffffffffffffffffff1673ffffffffffffffffffffffffffffffffffffffff166323a5f1dc8a8a8a8a8a8a8a8a8a6040518a63ffffffff1660e01b8152600401610197999897969594939291906104e5565b600060405180830381600087803b1580156101b157600080fd5b505af11580156101c5573d6000803e3d6000fd5b50505050505050505050505050565b6000600160009054906101000a900473ffffffffffffffffffffffffffffffffffffffff16905090565b6000600260009054906101000a900473ffffffffffffffffffffffffffffffffffffffff16905090565b600080fd5b600080fd5b600080fd5b600080fd5b600080fd5b60008083601f84011261025757610256610232565b5b8235905067ffffffffffffffff81111561027457610273610237565b5b6020830191508360018202830111156102905761028f61023c565b5b9250929050565b600073ffffffffffffffffffffffffffffffffffffffff82169050919050565b60006102c282610297565b9050919050565b6102d2816102b7565b81146102dd57600080fd5b50565b6000813590506102ef816102c9565b92915050565b600080600080600080600080600060a08a8c03121561031757610316610228565b5b60008a013567ffffffffffffffff8111156103355761033461022d565b5b6103418c828d01610241565b995099505060208a013567ffffffffffffffff8111156103645761036361022d565b5b6103708c828d01610241565b975097505060408a013567ffffffffffffffff8111156103935761039261022d565b5b61039f8c828d01610241565b955095505060608a013567ffffffffffffffff8111156103c2576103c161022d565b5b6103ce8c828d01610241565b935093505060806103e18c828d016102e0565b9150509295985092959850929598565b6103fa816102b7565b82525050565b600060208201905061041560008301846103f1565b92915050565b600082825260208201905092915050565b7f596f7520646964206e6f7420416c6c6f7720746f204163636573732000000000600082015250565b6000610462601c8361041b565b915061046d8261042c565b602082019050919050565b6000602082019050818103600083015261049181610455565b9050919050565b82818337600083830152505050565b6000601f19601f8301169050919050565b60006104c4838561041b565b93506104d1838584610498565b6104da836104a7565b840190509392505050565b600060a0820190508181036000830152610500818b8d6104b8565b9050818103602083015261051581898b6104b8565b9050818103604083015261052a8187896104b8565b9050818103606083015261053f8185876104b8565b905061054e60808301846103f1565b9a995050505050505050505056fea2646970667358221220fcf9ca030b36fce60deae2d466e3d36887b5f0fd80672abdae9cb3c812b4e8d464736f6c634300080b003360806040523480156200001157600080fd5b50604051620015b5380380620015b58339818101604052810190620000379190620000f1565b80600360006101000a81548173ffffffffffffffffffffffffffffffffffffffff021916908373ffffffffffffffffffffffffffffffffffffffff16021790555060006002819055505062000123565b600080fd5b600073ffffffffffffffffffffffffffffffffffffffff82169050919050565b6000620000b9826200008c565b9050919050565b620000cb81620000ac565b8114620000d757600080fd5b50565b600081519050620000eb81620000c0565b92915050565b6000602082840312156200010a576200010962000087565b5b60006200011a84828501620000da565b91505092915050565b61148280620001336000396000f3fe608060405234801561001057600080fd5b50600436106100575760003560e01c80630ed447651461005c57806323a5f1dc1461007a578063a02d369714610096578063ad25e829146100c6578063f09607ef146100f6575b600080fd5b610064610126565b6040516100719190610ec5565b60405180910390f35b610094600480360381019061008f9190610fb4565b610270565b005b6100b060048036038101906100ab91906110b0565b6105ee565b6040516100bd9190611197565b60405180910390f35b6100e060048036038101906100db91906111b9565b6108ee565b6040516100ed9190611197565b60405180910390f35b610110600480360381019061010b91906110b0565b610c0d565b60405161011d91906111f5565b60405180910390f35b606060048054905067ffffffffffffffff81111561014757610146611210565b5b60405190808252806020026020018201604052801561017a57816020015b60608152602001906001900390816101655790505b50905060005b60048054905081101561026c57600481815481106101a1576101a061123f565b5b906000526020600020906005020160020180546101bd9061129d565b80601f01602080910402602001604051908101604052809291908181526020018280546101e99061129d565b80156102365780601f1061020b57610100808354040283529160200191610236565b820191906000526020600020905b81548152906001019060200180831161021957829003601f168201915b505050505082828151811061024e5761024d61123f565b5b6020026020010181905250808061026490611308565b915050610180565b5090565b600360009054906101000a900473ffffffffffffffffffffffffffffffffffffffff1673ffffffffffffffffffffffffffffffffffffffff163373ffffffffffffffffffffffffffffffffffffffff1614610300576040517f08c379a00000000000000000000000000000000000000000000000000000000081526004016102f7906113d4565b60405180910390fd5b610308610c82565b89898080601f016020809104026020016040519081016040528093929190818152602001838380828437600081840152601f19601f82011690508083019250505050505050816000018190525087878080601f016020809104026020016040519081016040528093929190818152602001838380828437600081840152601f19601f82011690508083019250505050505050816020018190525085858080601f016020809104026020016040519081016040528093929190818152602001838380828437600081840152601f19601f82011690508083019250505050505050816040018190525083838080601f016020809104026020016040519081016040528093929190818152602001838380828437600081840152601f19601f82011690508083019250505050505050816060018190525081816080019073ffffffffffffffffffffffffffffffffffffffff16908173ffffffffffffffffffffffffffffffffffffffff168152505060025460008787604051610489929190611433565b908152602001604051809103902081905550600254600160008473ffffffffffffffffffffffffffffffffffffffff1673ffffffffffffffffffffffffffffffffffffffff16815260200190815260200160002081905550600260008154809291906104f490611308565b919050555060048190806001815401808255809150506001900390600052602060002090600502016000909190919091506000820151816000019080519060200190610541929190610cc7565b50602082015181600101908051906020019061055e929190610cc7565b50604082015181600201908051906020019061057b929190610cc7565b506060820151816003019080519060200190610598929190610cc7565b5060808201518160040160006101000a81548173ffffffffffffffffffffffffffffffffffffffff021916908373ffffffffffffffffffffffffffffffffffffffff160217905550505050505050505050505050565b6105f6610c82565b6000808484604051610609929190611433565b90815260200160405180910390205490506004818154811061062e5761062d61123f565b5b90600052602060002090600502016040518060a00160405290816000820180546106579061129d565b80601f01602080910402602001604051908101604052809291908181526020018280546106839061129d565b80156106d05780601f106106a5576101008083540402835291602001916106d0565b820191906000526020600020905b8154815290600101906020018083116106b357829003601f168201915b505050505081526020016001820180546106e99061129d565b80601f01602080910402602001604051908101604052809291908181526020018280546107159061129d565b80156107625780601f1061073757610100808354040283529160200191610762565b820191906000526020600020905b81548152906001019060200180831161074557829003601f168201915b5050505050815260200160028201805461077b9061129d565b80601f01602080910402602001604051908101604052809291908181526020018280546107a79061129d565b80156107f45780601f106107c9576101008083540402835291602001916107f4565b820191906000526020600020905b8154815290600101906020018083116107d757829003601f168201915b5050505050815260200160038201805461080d9061129d565b80601f01602080910402602001604051908101604052809291908181526020018280546108399061129d565b80156108865780601f1061085b57610100808354040283529160200191610886565b820191906000526020600020905b81548152906001019060200180831161086957829003601f168201915b505050505081526020016004820160009054906101000a900473ffffffffffffffffffffffffffffffffffffffff1673ffffffffffffffffffffffffffffffffffffffff1673ffffffffffffffffffffffffffffffffffffffff168152505091505092915050565b6108f6610c82565b6000600160008473ffffffffffffffffffffffffffffffffffffffff1673ffffffffffffffffffffffffffffffffffffffff1681526020019081526020016000205490506004818154811061094e5761094d61123f565b5b90600052602060002090600502016040518060a00160405290816000820180546109779061129d565b80601f01602080910402602001604051908101604052809291908181526020018280546109a39061129d565b80156109f05780601f106109c5576101008083540402835291602001916109f0565b820191906000526020600020905b8154815290600101906020018083116109d357829003601f168201915b50505050508152602001600182018054610a099061129d565b80601f0160208091040260200160405190810160405280929190818152602001828054610a359061129d565b8015610a825780601f10610a5757610100808354040283529160200191610a82565b820191906000526020600020905b815481529060010190602001808311610a6557829003601f168201915b50505050508152602001600282018054610a9b9061129d565b80601f0160208091040260200160405190810160405280929190818152602001828054610ac79061129d565b8015610b145780601f10610ae957610100808354040283529160200191610b14565b820191906000526020600020905b815481529060010190602001808311610af757829003601f168201915b50505050508152602001600382018054610b2d9061129d565b80601f0160208091040260200160405190810160405280929190818152602001828054610b599061129d565b8015610ba65780601f10610b7b57610100808354040283529160200191610ba6565b820191906000526020600020905b815481529060010190602001808311610b8957829003601f168201915b505050505081526020016004820160009054906101000a900473ffffffffffffffffffffffffffffffffffffffff1673ffffffffffffffffffffffffffffffffffffffff1673ffffffffffffffffffffffffffffffffffffffff1681525050915050919050565b60008060008484604051610c22929190611433565b908152602001604051809103902054905060048181548110610c4757610c4661123f565b5b906000526020600020906005020160040160009054906101000a900473ffffffffffffffffffffffffffffffffffffffff1691505092915050565b6040518060a0016040528060608152602001606081526020016060815260200160608152602001600073ffffffffffffffffffffffffffffffffffffffff1681525090565b828054610cd39061129d565b90600052602060002090601f016020900481019282610cf55760008555610d3c565b82601f10610d0e57805160ff1916838001178555610d3c565b82800160010185558215610d3c579182015b82811115610d3b578251825591602001919060010190610d20565b5b509050610d499190610d4d565b5090565b5b80821115610d66576000816000905550600101610d4e565b5090565b600081519050919050565b600082825260208201905092915050565b6000819050602082019050919050565b600081519050919050565b600082825260208201905092915050565b60005b83811015610dd0578082015181840152602081019050610db5565b83811115610ddf576000848401525b50505050565b6000601f19601f8301169050919050565b6000610e0182610d96565b610e0b8185610da1565b9350610e1b818560208601610db2565b610e2481610de5565b840191505092915050565b6000610e3b8383610df6565b905092915050565b6000602082019050919050565b6000610e5b82610d6a565b610e658185610d75565b935083602082028501610e7785610d86565b8060005b85811015610eb35784840389528151610e948582610e2f565b9450610e9f83610e43565b925060208a01995050600181019050610e7b565b50829750879550505050505092915050565b60006020820190508181036000830152610edf8184610e50565b905092915050565b600080fd5b600080fd5b600080fd5b600080fd5b600080fd5b60008083601f840112610f1657610f15610ef1565b5b8235905067ffffffffffffffff811115610f3357610f32610ef6565b5b602083019150836001820283011115610f4f57610f4e610efb565b5b9250929050565b600073ffffffffffffffffffffffffffffffffffffffff82169050919050565b6000610f8182610f56565b9050919050565b610f9181610f76565b8114610f9c57600080fd5b50565b600081359050610fae81610f88565b92915050565b600080600080600080600080600060a08a8c031215610fd657610fd5610ee7565b5b60008a013567ffffffffffffffff811115610ff457610ff3610eec565b5b6110008c828d01610f00565b995099505060208a013567ffffffffffffffff81111561102357611022610eec565b5b61102f8c828d01610f00565b975097505060408a013567ffffffffffffffff81111561105257611051610eec565b5b61105e8c828d01610f00565b955095505060608a013567ffffffffffffffff81111561108157611080610eec565b5b61108d8c828d01610f00565b935093505060806110a08c828d01610f9f565b9150509295985092959850929598565b600080602083850312156110c7576110c6610ee7565b5b600083013567ffffffffffffffff8111156110e5576110e4610eec565b5b6110f185828601610f00565b92509250509250929050565b61110681610f76565b82525050565b600060a08301600083015184820360008601526111298282610df6565b915050602083015184820360208601526111438282610df6565b9150506040830151848203604086015261115d8282610df6565b915050606083015184820360608601526111778282610df6565b915050608083015161118c60808601826110fd565b508091505092915050565b600060208201905081810360008301526111b1818461110c565b905092915050565b6000602082840312156111cf576111ce610ee7565b5b60006111dd84828501610f9f565b91505092915050565b6111ef81610f76565b82525050565b600060208201905061120a60008301846111e6565b92915050565b7f4e487b7100000000000000000000000000000000000000000000000000000000600052604160045260246000fd5b7f4e487b7100000000000000000000000000000000000000000000000000000000600052603260045260246000fd5b7f4e487b7100000000000000000000000000000000000000000000000000000000600052602260045260246000fd5b600060028204905060018216806112b557607f821691505b602082108114156112c9576112c861126e565b5b50919050565b7f4e487b7100000000000000000000000000000000000000000000000000000000600052601160045260246000fd5b6000819050919050565b6000611313826112fe565b91507fffffffffffffffffffffffffffffffffffffffffffffffffffffffffffffffff821415611346576113456112cf565b5b600182019050919050565b600082825260208201905092915050565b7f596f7520646964206e6f7420616c6c6f7720746f20696e736572742043616e6460008201527f6964617465000000000000000000000000000000000000000000000000000000602082015250565b60006113be602583611351565b91506113c982611362565b604082019050919050565b600060208201905081810360008301526113ed816113b1565b9050919050565b600081905092915050565b82818337600083830152505050565b600061141a83856113f4565b93506114278385846113ff565b82840190509392505050565b600061144082848661140e565b9150819050939250505056fea2646970667358221220c2b93fd0acb43c7931d437fed200887ba9670257273d8781c6db9c6b1a4ed38364736f6c634300080b003360806040523480156200001157600080fd5b5060405162001195380380620011958339818101604052810190620000379190620000e9565b80600160006101000a81548173ffffffffffffffffffffffffffffffffffffffff021916908373ffffffffffffffffffffffffffffffffffffffff160217905550506200011b565b600080fd5b600073ffffffffffffffffffffffffffffffffffffffff82169050919050565b6000620000b18262000084565b9050919050565b620000c381620000a4565b8114620000cf57600080fd5b50565b600081519050620000e381620000b8565b92915050565b6000602082840312156200010257620001016200007f565b5b60006200011284828501620000d2565b91505092915050565b61106a806200012b6000396000f3fe608060405234801561001057600080fd5b50600436106100415760003560e01c8063069953a7146100465780634a286e4314610076578063ec614bfa14610092575b600080fd5b610060600480360381019061005b9190610ac6565b6100c3565b60405161006d9190610b2c565b60405180910390f35b610090600480360381019061008b9190610c88565b610221565b005b6100ac60048036038101906100a79190610ac6565b610674565b6040516100ba929190610d8c565b60405180910390f35b600080600160009054906101000a900473ffffffffffffffffffffffffffffffffffffffff1673ffffffffffffffffffffffffffffffffffffffff1663f09607ef85856040518363ffffffff1660e01b8152600401610123929190610de9565b602060405180830381865afa158015610140573d6000803e3d6000fd5b505050506040513d601f19601f820116820180604052508101906101649190610e6b565b9050600073ffffffffffffffffffffffffffffffffffffffff168173ffffffffffffffffffffffffffffffffffffffff1614156101d6576040517f08c379a00000000000000000000000000000000000000000000000000000000081526004016101cd90610ee4565b60405180910390fd5b6000808273ffffffffffffffffffffffffffffffffffffffff1673ffffffffffffffffffffffffffffffffffffffff1681526020019081526020016000208054905091505092915050565b6000600160009054906101000a900473ffffffffffffffffffffffffffffffffffffffff1673ffffffffffffffffffffffffffffffffffffffff1663f09607ef84846040518363ffffffff1660e01b8152600401610280929190610de9565b602060405180830381865afa15801561029d573d6000803e3d6000fd5b505050506040513d601f19601f820116820180604052508101906102c19190610e6b565b9050600073ffffffffffffffffffffffffffffffffffffffff168173ffffffffffffffffffffffffffffffffffffffff161415610333576040517f08c379a000000000000000000000000000000000000000000000000000000000815260040161032a90610ee4565b60405180910390fd5b600073ffffffffffffffffffffffffffffffffffffffff16600260003373ffffffffffffffffffffffffffffffffffffffff1673ffffffffffffffffffffffffffffffffffffffff16815260200190815260200160002060020160009054906101000a900473ffffffffffffffffffffffffffffffffffffffff1673ffffffffffffffffffffffffffffffffffffffff1614610404576040517f08c379a00000000000000000000000000000000000000000000000000000000081526004016103fb90610f50565b60405180910390fd5b61040c610943565b84816000018190525033816020019073ffffffffffffffffffffffffffffffffffffffff16908173ffffffffffffffffffffffffffffffffffffffff16815250506000808373ffffffffffffffffffffffffffffffffffffffff1673ffffffffffffffffffffffffffffffffffffffff16815260200190815260200160002081908060018154018082558091505060019003906000526020600020906002020160009091909190915060008201518160000190805190602001906104d1929190610973565b5060208201518160010160006101000a81548173ffffffffffffffffffffffffffffffffffffffff021916908373ffffffffffffffffffffffffffffffffffffffff16021790555050506105236109f9565b85816000018190525060016000808573ffffffffffffffffffffffffffffffffffffffff1673ffffffffffffffffffffffffffffffffffffffff1681526020019081526020016000208054905061057a9190610f9f565b81602001818152505082816040019073ffffffffffffffffffffffffffffffffffffffff16908173ffffffffffffffffffffffffffffffffffffffff168152505080600260003373ffffffffffffffffffffffffffffffffffffffff1673ffffffffffffffffffffffffffffffffffffffff1681526020019081526020016000206000820151816000019080519060200190610617929190610973565b506020820151816001015560408201518160020160006101000a81548173ffffffffffffffffffffffffffffffffffffffff021916908373ffffffffffffffffffffffffffffffffffffffff160217905550905050505050505050565b6060600080600160009054906101000a900473ffffffffffffffffffffffffffffffffffffffff1673ffffffffffffffffffffffffffffffffffffffff1663f09607ef86866040518363ffffffff1660e01b81526004016106d6929190610de9565b602060405180830381865afa1580156106f3573d6000803e3d6000fd5b505050506040513d601f19601f820116820180604052508101906107179190610e6b565b9050600073ffffffffffffffffffffffffffffffffffffffff168173ffffffffffffffffffffffffffffffffffffffff161415610789576040517f08c379a000000000000000000000000000000000000000000000000000000000815260040161078090610ee4565b60405180910390fd5b600260003373ffffffffffffffffffffffffffffffffffffffff1673ffffffffffffffffffffffffffffffffffffffff16815260200190815260200160002060020160009054906101000a900473ffffffffffffffffffffffffffffffffffffffff1673ffffffffffffffffffffffffffffffffffffffff168173ffffffffffffffffffffffffffffffffffffffff16141561093a57600260003373ffffffffffffffffffffffffffffffffffffffff1673ffffffffffffffffffffffffffffffffffffffff168152602001908152602001600020600001600260003373ffffffffffffffffffffffffffffffffffffffff1673ffffffffffffffffffffffffffffffffffffffff168152602001908152602001600020600101548180546108b090611002565b80601f01602080910402602001604051908101604052809291908181526020018280546108dc90611002565b80156109295780601f106108fe57610100808354040283529160200191610929565b820191906000526020600020905b81548152906001019060200180831161090c57829003601f168201915b50505050509150925092505061093c565b505b9250929050565b604051806040016040528060608152602001600073ffffffffffffffffffffffffffffffffffffffff1681525090565b82805461097f90611002565b90600052602060002090601f0160209004810192826109a157600085556109e8565b82601f106109ba57805160ff19168380011785556109e8565b828001600101855582156109e8579182015b828111156109e75782518255916020019190600101906109cc565b5b5090506109f59190610a30565b5090565b60405180606001604052806060815260200160008152602001600073ffffffffffffffffffffffffffffffffffffffff1681525090565b5b80821115610a49576000816000905550600101610a31565b5090565b6000604051905090565b600080fd5b600080fd5b600080fd5b600080fd5b600080fd5b60008083601f840112610a8657610a85610a61565b5b8235905067ffffffffffffffff811115610aa357610aa2610a66565b5b602083019150836001820283011115610abf57610abe610a6b565b5b9250929050565b60008060208385031215610add57610adc610a57565b5b600083013567ffffffffffffffff811115610afb57610afa610a5c565b5b610b0785828601610a70565b92509250509250929050565b6000819050919050565b610b2681610b13565b82525050565b6000602082019050610b416000830184610b1d565b92915050565b600080fd5b6000601f19601f8301169050919050565b7f4e487b7100000000000000000000000000000000000000000000000000000000600052604160045260246000fd5b610b9582610b4c565b810181811067ffffffffffffffff82111715610bb457610bb3610b5d565b5b80604052505050565b6000610bc7610a4d565b9050610bd38282610b8c565b919050565b600067ffffffffffffffff821115610bf357610bf2610b5d565b5b610bfc82610b4c565b9050602081019050919050565b82818337600083830152505050565b6000610c2b610c2684610bd8565b610bbd565b905082815260208101848484011115610c4757610c46610b47565b5b610c52848285610c09565b509392505050565b600082601f830112610c6f57610c6e610a61565b5b8135610c7f848260208601610c18565b91505092915050565b600080600060408486031215610ca157610ca0610a57565b5b600084013567ffffffffffffffff811115610cbf57610cbe610a5c565b5b610ccb86828701610c5a565b935050602084013567ffffffffffffffff811115610cec57610ceb610a5c565b5b610cf886828701610a70565b92509250509250925092565b600081519050919050565b600082825260208201905092915050565b60005b83811015610d3e578082015181840152602081019050610d23565b83811115610d4d576000848401525b50505050565b6000610d5e82610d04565b610d688185610d0f565b9350610d78818560208601610d20565b610d8181610b4c565b840191505092915050565b60006040820190508181036000830152610da68185610d53565b9050610db56020830184610b1d565b9392505050565b6000610dc88385610d0f565b9350610dd5838584610c09565b610dde83610b4c565b840190509392505050565b60006020820190508181036000830152610e04818486610dbc565b90509392505050565b600073ffffffffffffffffffffffffffffffffffffffff82169050919050565b6000610e3882610e0d565b9050919050565b610e4881610e2d565b8114610e5357600080fd5b50565b600081519050610e6581610e3f565b92915050565b600060208284031215610e8157610e80610a57565b5b6000610e8f84828501610e56565b91505092915050565b7f54686973207061727420646f6573206e6f742065786973740000000000000000600082015250565b6000610ece601883610d0f565b9150610ed982610e98565b602082019050919050565b60006020820190508181036000830152610efd81610ec1565b9050919050565b7f596f757220566f746520697320416c7265616479206361737465000000000000600082015250565b6000610f3a601a83610d0f565b9150610f4582610f04565b602082019050919050565b60006020820190508181036000830152610f6981610f2d565b9050919050565b7f4e487b7100000000000000000000000000000000000000000000000000000000600052601160045260246000fd5b6000610faa82610b13565b9150610fb583610b13565b925082821015610fc857610fc7610f70565b5b828203905092915050565b7f4e487b7100000000000000000000000000000000000000000000000000000000600052602260045260246000fd5b6000600282049050600182168061101a57607f821691505b6020821081141561102e5761102d610fd3565b5b5091905056fea2646970667358221220804ccef2031edc47066c3e9bdd2cb35a71cf9ec2feb3fcda27be6a96f6f9547964736f6c634300080b0033",
  "immutableReferences": {},
  "source": "// SPDX-License-Identifier: MIT\npragma solidity >=0.4.22 <0.9.0;\n\nimport \"./Candidate.sol\";\nimport \"./Voter.sol\";\ncontract ElectionComission {\n    address private ec_admin;\n    Candidate private candidateObj;\n    Voter     private voterObj;\n    constructor() \n        {\n            ec_admin = msg.sender;\n            candidateObj = new Candidate(address(this));\n            voterObj = new Voter(address(candidateObj));\n    }\n    modifier is_ECAdmin(){\n        require(msg.sender==ec_admin,\"You did not Allow to Access \");\n        _;\n    }\n\n    function getCandidateContractAddress() public view returns(address _candidateObj){\n        return address(candidateObj);\n    }\n    function getVoterContractAddress() public view returns(address _voterObj){\n        return address(voterObj);\n    }\n\n    function insertNewCandidate(string calldata _fname,string calldata _lname,string calldata _partyName,string calldata _partySymbol,address _address) public is_ECAdmin  {\n       candidateObj.insertCandidate(_fname,_lname,_partyName,_partySymbol,_address);\n    }\n}",
  "sourcePath": "/home/node01/election_eth/contracts/ElectionComission.sol",
  "compiler": {
    "name": "solc",
    "version": "0.8.11+commit.d7f03943.Emscripten.clang"
  },
  "schemaVersion": "3.4.4",
  "updatedAt": "2022-01-31T13:50:57.134Z",
  "networkType": "ethereum",
  "devdoc": {
    "kind": "dev",
    "methods": {},
    "version": 1
  },
  "userdoc": {
    "kind": "user",
    "methods": {},
    "version": 1
  }
}