{
  "contractName": "Voter",
  "abi": [
    {
      "inputs": [
        {
          "internalType": "address",
          "name": "_address",
          "type": "address"
        }
      ],
      "stateMutability": "nonpayable",
      "type": "constructor"
    },
    {
      "inputs": [
        {
          "internalType": "string",
          "name": "_nic",
          "type": "string"
        },
        {
          "internalType": "string",
          "name": "_partyName",
          "type": "string"
        }
      ],
      "name": "insertVoteByPartyName",
      "outputs": [],
      "stateMutability": "nonpayable",
      "type": "function"
    },
    {
      "inputs": [
        {
          "internalType": "string",
          "name": "_partyName",
          "type": "string"
        }
      ],
      "name": "getVoteCount",
      "outputs": [
        {
          "internalType": "uint256",
          "name": "count",
          "type": "uint256"
        }
      ],
      "stateMutability": "view",
      "type": "function"
    },
    {
      "inputs": [
        {
          "internalType": "string",
          "name": "_partyName",
          "type": "string"
        }
      ],
      "name": "verifyVote",
      "outputs": [
        {
          "internalType": "string",
          "name": "nic",
          "type": "string"
        },
        {
          "internalType": "uint256",
          "name": "index",
          "type": "uint256"
        }
      ],
      "stateMutability": "view",
      "type": "function"
    }
  ],
  "bytecode": "0x60806040523480156200001157600080fd5b5060405162001195380380620011958339818101604052810190620000379190620000e9565b80600160006101000a81548173ffffffffffffffffffffffffffffffffffffffff021916908373ffffffffffffffffffffffffffffffffffffffff160217905550506200011b565b600080fd5b600073ffffffffffffffffffffffffffffffffffffffff82169050919050565b6000620000b18262000084565b9050919050565b620000c381620000a4565b8114620000cf57600080fd5b50565b600081519050620000e381620000b8565b92915050565b6000602082840312156200010257620001016200007f565b5b60006200011284828501620000d2565b91505092915050565b61106a806200012b6000396000f3fe608060405234801561001057600080fd5b50600436106100415760003560e01c8063069953a7146100465780634a286e4314610076578063ec614bfa14610092575b600080fd5b610060600480360381019061005b9190610ac6565b6100c3565b60405161006d9190610b2c565b60405180910390f35b610090600480360381019061008b9190610c88565b610221565b005b6100ac60048036038101906100a79190610ac6565b610674565b6040516100ba929190610d8c565b60405180910390f35b600080600160009054906101000a900473ffffffffffffffffffffffffffffffffffffffff1673ffffffffffffffffffffffffffffffffffffffff1663f09607ef85856040518363ffffffff1660e01b8152600401610123929190610de9565b602060405180830381865afa158015610140573d6000803e3d6000fd5b505050506040513d601f19601f820116820180604052508101906101649190610e6b565b9050600073ffffffffffffffffffffffffffffffffffffffff168173ffffffffffffffffffffffffffffffffffffffff1614156101d6576040517f08c379a00000000000000000000000000000000000000000000000000000000081526004016101cd90610ee4565b60405180910390fd5b6000808273ffffffffffffffffffffffffffffffffffffffff1673ffffffffffffffffffffffffffffffffffffffff1681526020019081526020016000208054905091505092915050565b6000600160009054906101000a900473ffffffffffffffffffffffffffffffffffffffff1673ffffffffffffffffffffffffffffffffffffffff1663f09607ef84846040518363ffffffff1660e01b8152600401610280929190610de9565b602060405180830381865afa15801561029d573d6000803e3d6000fd5b505050506040513d601f19601f820116820180604052508101906102c19190610e6b565b9050600073ffffffffffffffffffffffffffffffffffffffff168173ffffffffffffffffffffffffffffffffffffffff161415610333576040517f08c379a000000000000000000000000000000000000000000000000000000000815260040161032a90610ee4565b60405180910390fd5b600073ffffffffffffffffffffffffffffffffffffffff16600260003373ffffffffffffffffffffffffffffffffffffffff1673ffffffffffffffffffffffffffffffffffffffff16815260200190815260200160002060020160009054906101000a900473ffffffffffffffffffffffffffffffffffffffff1673ffffffffffffffffffffffffffffffffffffffff1614610404576040517f08c379a00000000000000000000000000000000000000000000000000000000081526004016103fb90610f50565b60405180910390fd5b61040c610943565b84816000018190525033816020019073ffffffffffffffffffffffffffffffffffffffff16908173ffffffffffffffffffffffffffffffffffffffff16815250506000808373ffffffffffffffffffffffffffffffffffffffff1673ffffffffffffffffffffffffffffffffffffffff16815260200190815260200160002081908060018154018082558091505060019003906000526020600020906002020160009091909190915060008201518160000190805190602001906104d1929190610973565b5060208201518160010160006101000a81548173ffffffffffffffffffffffffffffffffffffffff021916908373ffffffffffffffffffffffffffffffffffffffff16021790555050506105236109f9565b85816000018190525060016000808573ffffffffffffffffffffffffffffffffffffffff1673ffffffffffffffffffffffffffffffffffffffff1681526020019081526020016000208054905061057a9190610f9f565b81602001818152505082816040019073ffffffffffffffffffffffffffffffffffffffff16908173ffffffffffffffffffffffffffffffffffffffff168152505080600260003373ffffffffffffffffffffffffffffffffffffffff1673ffffffffffffffffffffffffffffffffffffffff1681526020019081526020016000206000820151816000019080519060200190610617929190610973565b506020820151816001015560408201518160020160006101000a81548173ffffffffffffffffffffffffffffffffffffffff021916908373ffffffffffffffffffffffffffffffffffffffff160217905550905050505050505050565b6060600080600160009054906101000a900473ffffffffffffffffffffffffffffffffffffffff1673ffffffffffffffffffffffffffffffffffffffff1663f09607ef86866040518363ffffffff1660e01b81526004016106d6929190610de9565b602060405180830381865afa1580156106f3573d6000803e3d6000fd5b505050506040513d601f19601f820116820180604052508101906107179190610e6b565b9050600073ffffffffffffffffffffffffffffffffffffffff168173ffffffffffffffffffffffffffffffffffffffff161415610789576040517f08c379a000000000000000000000000000000000000000000000000000000000815260040161078090610ee4565b60405180910390fd5b600260003373ffffffffffffffffffffffffffffffffffffffff1673ffffffffffffffffffffffffffffffffffffffff16815260200190815260200160002060020160009054906101000a900473ffffffffffffffffffffffffffffffffffffffff1673ffffffffffffffffffffffffffffffffffffffff168173ffffffffffffffffffffffffffffffffffffffff16141561093a57600260003373ffffffffffffffffffffffffffffffffffffffff1673ffffffffffffffffffffffffffffffffffffffff168152602001908152602001600020600001600260003373ffffffffffffffffffffffffffffffffffffffff1673ffffffffffffffffffffffffffffffffffffffff168152602001908152602001600020600101548180546108b090611002565b80601f01602080910402602001604051908101604052809291908181526020018280546108dc90611002565b80156109295780601f106108fe57610100808354040283529160200191610929565b820191906000526020600020905b81548152906001019060200180831161090c57829003601f168201915b50505050509150925092505061093c565b505b9250929050565b604051806040016040528060608152602001600073ffffffffffffffffffffffffffffffffffffffff1681525090565b82805461097f90611002565b90600052602060002090601f0160209004810192826109a157600085556109e8565b82601f106109ba57805160ff19168380011785556109e8565b828001600101855582156109e8579182015b828111156109e75782518255916020019190600101906109cc565b5b5090506109f59190610a30565b5090565b60405180606001604052806060815260200160008152602001600073ffffffffffffffffffffffffffffffffffffffff1681525090565b5b80821115610a49576000816000905550600101610a31565b5090565b6000604051905090565b600080fd5b600080fd5b600080fd5b600080fd5b600080fd5b60008083601f840112610a8657610a85610a61565b5b8235905067ffffffffffffffff811115610aa357610aa2610a66565b5b602083019150836001820283011115610abf57610abe610a6b565b5b9250929050565b60008060208385031215610add57610adc610a57565b5b600083013567ffffffffffffffff811115610afb57610afa610a5c565b5b610b0785828601610a70565b92509250509250929050565b6000819050919050565b610b2681610b13565b82525050565b6000602082019050610b416000830184610b1d565b92915050565b600080fd5b6000601f19601f8301169050919050565b7f4e487b7100000000000000000000000000000000000000000000000000000000600052604160045260246000fd5b610b9582610b4c565b810181811067ffffffffffffffff82111715610bb457610bb3610b5d565b5b80604052505050565b6000610bc7610a4d565b9050610bd38282610b8c565b919050565b600067ffffffffffffffff821115610bf357610bf2610b5d565b5b610bfc82610b4c565b9050602081019050919050565b82818337600083830152505050565b6000610c2b610c2684610bd8565b610bbd565b905082815260208101848484011115610c4757610c46610b47565b5b610c52848285610c09565b509392505050565b600082601f830112610c6f57610c6e610a61565b5b8135610c7f848260208601610c18565b91505092915050565b600080600060408486031215610ca157610ca0610a57565b5b600084013567ffffffffffffffff811115610cbf57610cbe610a5c565b5b610ccb86828701610c5a565b935050602084013567ffffffffffffffff811115610cec57610ceb610a5c565b5b610cf886828701610a70565b92509250509250925092565b600081519050919050565b600082825260208201905092915050565b60005b83811015610d3e578082015181840152602081019050610d23565b83811115610d4d576000848401525b50505050565b6000610d5e82610d04565b610d688185610d0f565b9350610d78818560208601610d20565b610d8181610b4c565b840191505092915050565b60006040820190508181036000830152610da68185610d53565b9050610db56020830184610b1d565b9392505050565b6000610dc88385610d0f565b9350610dd5838584610c09565b610dde83610b4c565b840190509392505050565b60006020820190508181036000830152610e04818486610dbc565b90509392505050565b600073ffffffffffffffffffffffffffffffffffffffff82169050919050565b6000610e3882610e0d565b9050919050565b610e4881610e2d565b8114610e5357600080fd5b50565b600081519050610e6581610e3f565b92915050565b600060208284031215610e8157610e80610a57565b5b6000610e8f84828501610e56565b91505092915050565b7f54686973207061727420646f6573206e6f742065786973740000000000000000600082015250565b6000610ece601883610d0f565b9150610ed982610e98565b602082019050919050565b60006020820190508181036000830152610efd81610ec1565b9050919050565b7f596f757220566f746520697320416c7265616479206361737465000000000000600082015250565b6000610f3a601a83610d0f565b9150610f4582610f04565b602082019050919050565b60006020820190508181036000830152610f6981610f2d565b9050919050565b7f4e487b7100000000000000000000000000000000000000000000000000000000600052601160045260246000fd5b6000610faa82610b13565b9150610fb583610b13565b925082821015610fc857610fc7610f70565b5b828203905092915050565b7f4e487b7100000000000000000000000000000000000000000000000000000000600052602260045260246000fd5b6000600282049050600182168061101a57607f821691505b6020821081141561102e5761102d610fd3565b5b5091905056fea2646970667358221220804ccef2031edc47066c3e9bdd2cb35a71cf9ec2feb3fcda27be6a96f6f9547964736f6c634300080b0033",
  "immutableReferences": {},
  "source": "// SPDX-License-Identifier: MIT\npragma solidity >=0.4.22 <0.9.0;\n\nimport \"./Candidate.sol\";\ncontract Voter {\n\n    struct voter{\n        string nic;\n        address ethereumAccount;\n    }\n    struct VoterParty{\n        string nic;\n        uint index;\n        address ethereumAccount;\n    }\n    mapping(address=>voter[]) private voters;\n    Candidate private candidateObj;\n    mapping(address=>VoterParty) private VoterPartAddress;\n\n\n\n    constructor(address _address) {\n\n        candidateObj= Candidate(_address);\n    }\n    function insertVoteByPartyName(string memory _nic,string calldata _partyName) public{\n        address part_address= candidateObj.getCandidateAddress(_partyName);\n        require (part_address!=address(0),\"This part does not exist\");\n        require (VoterPartAddress[msg.sender].ethereumAccount==address(0),\"Your Vote is Already caste\");\n\n        voter memory newVoter;\n        newVoter.nic=_nic;\n        newVoter.ethereumAccount=msg.sender;        \n        voters[part_address].push(newVoter);\n\n        VoterParty memory voterParty;\n        voterParty.nic=_nic;\n        voterParty.index=(voters[part_address].length-1);\n\n        voterParty.ethereumAccount=part_address;        \n        VoterPartAddress[msg.sender]=voterParty;\n    }\n    function getVoteCount(string calldata _partyName) public view returns(uint count){\n        address part_address= candidateObj.getCandidateAddress(_partyName);\n        require (part_address!=address(0),\"This part does not exist\");\n        return voters[part_address].length;\n    }\n\n\n    function verifyVote(string calldata _partyName) public view returns(string memory nic,uint index){\n        address part_address= candidateObj.getCandidateAddress(_partyName);\n        require (part_address!=address(0),\"This part does not exist\");\n        if(part_address==VoterPartAddress[msg.sender].ethereumAccount){\n            return (VoterPartAddress[msg.sender].nic, VoterPartAddress[msg.sender].index);\n        }\n    }\n\n}",
  "sourcePath": "/home/node01/election_eth/contracts/Voter.sol",
  "compiler": {
    "name": "solc",
    "version": "0.8.11+commit.d7f03943.Emscripten.clang"
  },
  "schemaVersion": "3.4.4",
  "updatedAt": "2022-01-31T13:50:56.547Z",
  "devdoc": {
    "kind": "dev",
    "methods": {},
    "version": 1
  },
  "userdoc": {
    "kind": "user",
    "methods": {},
    "version": 1
  }
}