{
  "address": "0x16BfEE332dc80BEb0544FC00A1BD4d19980aF400",
  "abi": [
    {
      "inputs": [],
      "stateMutability": "nonpayable",
      "type": "constructor"
    },
    {
      "anonymous": false,
      "inputs": [
        {
          "indexed": true,
          "internalType": "address",
          "name": "owner",
          "type": "address"
        },
        {
          "indexed": true,
          "internalType": "address",
          "name": "approved",
          "type": "address"
        },
        {
          "indexed": true,
          "internalType": "uint256",
          "name": "tokenId",
          "type": "uint256"
        }
      ],
      "name": "Approval",
      "type": "event"
    },
    {
      "anonymous": false,
      "inputs": [
        {
          "indexed": true,
          "internalType": "address",
          "name": "owner",
          "type": "address"
        },
        {
          "indexed": true,
          "internalType": "address",
          "name": "operator",
          "type": "address"
        },
        {
          "indexed": false,
          "internalType": "bool",
          "name": "approved",
          "type": "bool"
        }
      ],
      "name": "ApprovalForAll",
      "type": "event"
    },
    {
      "anonymous": false,
      "inputs": [
        {
          "indexed": false,
          "internalType": "uint256",
          "name": "index",
          "type": "uint256"
        },
        {
          "indexed": false,
          "internalType": "string",
          "name": "tokenURI",
          "type": "string"
        }
      ],
      "name": "CreateSVGNFT",
      "type": "event"
    },
    {
      "anonymous": false,
      "inputs": [
        {
          "indexed": true,
          "internalType": "address",
          "name": "from",
          "type": "address"
        },
        {
          "indexed": true,
          "internalType": "address",
          "name": "to",
          "type": "address"
        },
        {
          "indexed": true,
          "internalType": "uint256",
          "name": "tokenId",
          "type": "uint256"
        }
      ],
      "name": "Transfer",
      "type": "event"
    },
    {
      "inputs": [
        {
          "internalType": "address",
          "name": "to",
          "type": "address"
        },
        {
          "internalType": "uint256",
          "name": "tokenId",
          "type": "uint256"
        }
      ],
      "name": "approve",
      "outputs": [],
      "stateMutability": "nonpayable",
      "type": "function"
    },
    {
      "inputs": [
        {
          "internalType": "address",
          "name": "owner",
          "type": "address"
        }
      ],
      "name": "balanceOf",
      "outputs": [
        {
          "internalType": "uint256",
          "name": "",
          "type": "uint256"
        }
      ],
      "stateMutability": "view",
      "type": "function"
    },
    {
      "inputs": [
        {
          "internalType": "string",
          "name": "svg",
          "type": "string"
        }
      ],
      "name": "createNFT",
      "outputs": [
        {
          "internalType": "uint256",
          "name": "",
          "type": "uint256"
        }
      ],
      "stateMutability": "nonpayable",
      "type": "function"
    },
    {
      "inputs": [
        {
          "internalType": "string",
          "name": "nftName",
          "type": "string"
        },
        {
          "internalType": "string",
          "name": "imageURI",
          "type": "string"
        }
      ],
      "name": "formatTokenURI",
      "outputs": [
        {
          "internalType": "string",
          "name": "",
          "type": "string"
        }
      ],
      "stateMutability": "pure",
      "type": "function"
    },
    {
      "inputs": [
        {
          "internalType": "uint256",
          "name": "tokenId",
          "type": "uint256"
        }
      ],
      "name": "getApproved",
      "outputs": [
        {
          "internalType": "address",
          "name": "",
          "type": "address"
        }
      ],
      "stateMutability": "view",
      "type": "function"
    },
    {
      "inputs": [
        {
          "internalType": "address",
          "name": "owner",
          "type": "address"
        },
        {
          "internalType": "address",
          "name": "operator",
          "type": "address"
        }
      ],
      "name": "isApprovedForAll",
      "outputs": [
        {
          "internalType": "bool",
          "name": "",
          "type": "bool"
        }
      ],
      "stateMutability": "view",
      "type": "function"
    },
    {
      "inputs": [],
      "name": "name",
      "outputs": [
        {
          "internalType": "string",
          "name": "",
          "type": "string"
        }
      ],
      "stateMutability": "view",
      "type": "function"
    },
    {
      "inputs": [
        {
          "internalType": "uint256",
          "name": "tokenId",
          "type": "uint256"
        }
      ],
      "name": "ownerOf",
      "outputs": [
        {
          "internalType": "address",
          "name": "",
          "type": "address"
        }
      ],
      "stateMutability": "view",
      "type": "function"
    },
    {
      "inputs": [
        {
          "internalType": "address",
          "name": "from",
          "type": "address"
        },
        {
          "internalType": "address",
          "name": "to",
          "type": "address"
        },
        {
          "internalType": "uint256",
          "name": "tokenId",
          "type": "uint256"
        }
      ],
      "name": "safeTransferFrom",
      "outputs": [],
      "stateMutability": "nonpayable",
      "type": "function"
    },
    {
      "inputs": [
        {
          "internalType": "address",
          "name": "from",
          "type": "address"
        },
        {
          "internalType": "address",
          "name": "to",
          "type": "address"
        },
        {
          "internalType": "uint256",
          "name": "tokenId",
          "type": "uint256"
        },
        {
          "internalType": "bytes",
          "name": "_data",
          "type": "bytes"
        }
      ],
      "name": "safeTransferFrom",
      "outputs": [],
      "stateMutability": "nonpayable",
      "type": "function"
    },
    {
      "inputs": [
        {
          "internalType": "address",
          "name": "operator",
          "type": "address"
        },
        {
          "internalType": "bool",
          "name": "approved",
          "type": "bool"
        }
      ],
      "name": "setApprovalForAll",
      "outputs": [],
      "stateMutability": "nonpayable",
      "type": "function"
    },
    {
      "inputs": [
        {
          "internalType": "bytes4",
          "name": "interfaceId",
          "type": "bytes4"
        }
      ],
      "name": "supportsInterface",
      "outputs": [
        {
          "internalType": "bool",
          "name": "",
          "type": "bool"
        }
      ],
      "stateMutability": "view",
      "type": "function"
    },
    {
      "inputs": [
        {
          "internalType": "string",
          "name": "svg",
          "type": "string"
        }
      ],
      "name": "svgToImageURI",
      "outputs": [
        {
          "internalType": "string",
          "name": "",
          "type": "string"
        }
      ],
      "stateMutability": "pure",
      "type": "function"
    },
    {
      "inputs": [],
      "name": "symbol",
      "outputs": [
        {
          "internalType": "string",
          "name": "",
          "type": "string"
        }
      ],
      "stateMutability": "view",
      "type": "function"
    },
    {
      "inputs": [
        {
          "internalType": "uint256",
          "name": "tokenId",
          "type": "uint256"
        }
      ],
      "name": "tokenURI",
      "outputs": [
        {
          "internalType": "string",
          "name": "",
          "type": "string"
        }
      ],
      "stateMutability": "view",
      "type": "function"
    },
    {
      "inputs": [
        {
          "internalType": "address",
          "name": "from",
          "type": "address"
        },
        {
          "internalType": "address",
          "name": "to",
          "type": "address"
        },
        {
          "internalType": "uint256",
          "name": "tokenId",
          "type": "uint256"
        }
      ],
      "name": "transferFrom",
      "outputs": [],
      "stateMutability": "nonpayable",
      "type": "function"
    }
  ],
  "transactionHash": "0xc67ab704a11689cd1a55da69e16519c69511c6665a08286f2dc78ca28a6f02a5",
  "args": [],
  "numDeployments": 1,
  "solcInputHash": "a9fc46dafd0565b2c3d00295fafae491",
  "bytecode": "0x60806040523480156200001157600080fd5b506040518060400160405280600e81526020017f535647204e544620546f6b656e200000000000000000000000000000000000008152506040518060400160405280600881526020017f544b5356474e4654000000000000000000000000000000000000000000000000815250816000908051906020019062000096929190620000b8565b508060019080519060200190620000af929190620000b8565b505050620001cd565b828054620000c69062000168565b90600052602060002090601f016020900481019282620000ea576000855562000136565b82601f106200010557805160ff191683800117855562000136565b8280016001018555821562000136579182015b828111156200013557825182559160200191906001019062000118565b5b50905062000145919062000149565b5090565b5b80821115620001645760008160009055506001016200014a565b5090565b600060028204905060018216806200018157607f821691505b602082108114156200019857620001976200019e565b5b50919050565b7f4e487b7100000000000000000000000000000000000000000000000000000000600052602260045260246000fd5b6135c180620001dd6000396000f3fe608060405234801561001057600080fd5b50600436106101005760003560e01c80636352211e11610097578063b88d4fde11610066578063b88d4fde146102d1578063c87b56dd146102ed578063da2ed03e1461031d578063e985e9c51461034d57610100565b80636352211e1461023757806370a082311461026757806395d89b4114610297578063a22cb465146102b557610100565b806323b872dd116100d357806323b872dd1461019f57806330d871c6146101bb57806342842e0e146101eb578063560292721461020757610100565b806301ffc9a71461010557806306fdde0314610135578063081812fc14610153578063095ea7b314610183575b600080fd5b61011f600480360381019061011a9190612172565b61037d565b60405161012c9190612839565b60405180910390f35b61013d61045f565b60405161014a9190612854565b60405180910390f35b61016d60048036038101906101689190612271565b6104f1565b60405161017a91906127d2565b60405180910390f35b61019d60048036038101906101989190612136565b610576565b005b6101b960048036038101906101b49190612030565b61068e565b005b6101d560048036038101906101d091906121c4565b6106ee565b6040516101e29190612854565b60405180910390f35b61020560048036038101906102009190612030565b610787565b005b610221600480360381019061021c9190612205565b6107a7565b60405161022e9190612854565b60405180910390f35b610251600480360381019061024c9190612271565b6107fc565b60405161025e91906127d2565b60405180910390f35b610281600480360381019061027c9190611fcb565b6108ae565b60405161028e9190612a76565b60405180910390f35b61029f610966565b6040516102ac9190612854565b60405180910390f35b6102cf60048036038101906102ca91906120fa565b6109f8565b005b6102eb60048036038101906102e6919061207f565b610a0e565b005b61030760048036038101906103029190612271565b610a70565b6040516103149190612854565b60405180910390f35b610337600480360381019061033291906121c4565b610bc2565b6040516103449190612a76565b60405180910390f35b61036760048036038101906103629190611ff4565b610c7c565b6040516103749190612839565b60405180910390f35b60007f80ac58cd000000000000000000000000000000000000000000000000000000007bffffffffffffffffffffffffffffffffffffffffffffffffffffffff1916827bffffffffffffffffffffffffffffffffffffffffffffffffffffffff1916148061044857507f5b5e139f000000000000000000000000000000000000000000000000000000007bffffffffffffffffffffffffffffffffffffffffffffffffffffffff1916827bffffffffffffffffffffffffffffffffffffffffffffffffffffffff1916145b80610458575061045782610d10565b5b9050919050565b60606000805461046e90612d56565b80601f016020809104026020016040519081016040528092919081815260200182805461049a90612d56565b80156104e75780601f106104bc576101008083540402835291602001916104e7565b820191906000526020600020905b8154815290600101906020018083116104ca57829003601f168201915b5050505050905090565b60006104fc82610d7a565b61053b576040517f08c379a0000000000000000000000000000000000000000000000000000000008152600401610532906129d6565b60405180910390fd5b6004600083815260200190815260200160002060009054906101000a900473ffffffffffffffffffffffffffffffffffffffff169050919050565b6000610581826107fc565b90508073ffffffffffffffffffffffffffffffffffffffff168373ffffffffffffffffffffffffffffffffffffffff1614156105f2576040517f08c379a00000000000000000000000000000000000000000000000000000000081526004016105e990612a36565b60405180910390fd5b8073ffffffffffffffffffffffffffffffffffffffff16610611610de6565b73ffffffffffffffffffffffffffffffffffffffff161480610640575061063f8161063a610de6565b610c7c565b5b61067f576040517f08c379a000000000000000000000000000000000000000000000000000000000815260040161067690612916565b60405180910390fd5b6106898383610dee565b505050565b61069f610699610de6565b82610ea7565b6106de576040517f08c379a00000000000000000000000000000000000000000000000000000000081526004016106d590612a56565b60405180910390fd5b6106e9838383610f85565b505050565b606060006040518060400160405280601a81526020017f646174613a696d6167652f7376672b786d6c3b6261736536342c000000000000815250905060006107548460405160200161074091906126d5565b6040516020818303038152906040526111e1565b90506000828260405160200161076b9291906126ec565b6040516020818303038152906040529050809350505050919050565b6107a283838360405180602001604052806000815250610a0e565b505050565b60606107d58384846040516020016107c193929190612710565b6040516020818303038152906040526111e1565b6040516020016107e591906127b0565b604051602081830303815290604052905092915050565b6000806002600084815260200190815260200160002060009054906101000a900473ffffffffffffffffffffffffffffffffffffffff169050600073ffffffffffffffffffffffffffffffffffffffff168173ffffffffffffffffffffffffffffffffffffffff1614156108a5576040517f08c379a000000000000000000000000000000000000000000000000000000000815260040161089c90612956565b60405180910390fd5b80915050919050565b60008073ffffffffffffffffffffffffffffffffffffffff168273ffffffffffffffffffffffffffffffffffffffff16141561091f576040517f08c379a000000000000000000000000000000000000000000000000000000000815260040161091690612936565b60405180910390fd5b600360008373ffffffffffffffffffffffffffffffffffffffff1673ffffffffffffffffffffffffffffffffffffffff168152602001908152602001600020549050919050565b60606001805461097590612d56565b80601f01602080910402602001604051908101604052809291908181526020018280546109a190612d56565b80156109ee5780601f106109c3576101008083540402835291602001916109ee565b820191906000526020600020905b8154815290600101906020018083116109d157829003601f168201915b5050505050905090565b610a0a610a03610de6565b8383611380565b5050565b610a1f610a19610de6565b83610ea7565b610a5e576040517f08c379a0000000000000000000000000000000000000000000000000000000008152600401610a5590612a56565b60405180910390fd5b610a6a848484846114ed565b50505050565b6060610a7b82610d7a565b610aba576040517f08c379a0000000000000000000000000000000000000000000000000000000008152600401610ab1906129b6565b60405180910390fd5b6000600660008481526020019081526020016000208054610ada90612d56565b80601f0160208091040260200160405190810160405280929190818152602001828054610b0690612d56565b8015610b535780601f10610b2857610100808354040283529160200191610b53565b820191906000526020600020905b815481529060010190602001808311610b3657829003601f168201915b505050505090506000610b64611549565b9050600081511415610b7a578192505050610bbd565b600082511115610baf578082604051602001610b979291906126ec565b60405160208183030381529060405292505050610bbd565b610bb884611560565b925050505b919050565b6000610bce6007611607565b6000610bda600761161d565b9050610be6338261162b565b6000610bf1846106ee565b90506000610bfe83611649565b604051602001610c0e919061278e565b60405160208183030381529060405290506000610c2b82846107a7565b9050610c3784826117f6565b7fe11a3774b7d072913f405e8ee273b13461fdc2b88d5b8eb679837ae65508e46c8482604051610c68929190612a91565b60405180910390a183945050505050919050565b6000600560008473ffffffffffffffffffffffffffffffffffffffff1673ffffffffffffffffffffffffffffffffffffffff16815260200190815260200160002060008373ffffffffffffffffffffffffffffffffffffffff1673ffffffffffffffffffffffffffffffffffffffff16815260200190815260200160002060009054906101000a900460ff16905092915050565b60007f01ffc9a7000000000000000000000000000000000000000000000000000000007bffffffffffffffffffffffffffffffffffffffffffffffffffffffff1916827bffffffffffffffffffffffffffffffffffffffffffffffffffffffff1916149050919050565b60008073ffffffffffffffffffffffffffffffffffffffff166002600084815260200190815260200160002060009054906101000a900473ffffffffffffffffffffffffffffffffffffffff1673ffffffffffffffffffffffffffffffffffffffff1614159050919050565b600033905090565b816004600083815260200190815260200160002060006101000a81548173ffffffffffffffffffffffffffffffffffffffff021916908373ffffffffffffffffffffffffffffffffffffffff160217905550808273ffffffffffffffffffffffffffffffffffffffff16610e61836107fc565b73ffffffffffffffffffffffffffffffffffffffff167f8c5be1e5ebec7d5bd14f71427d1e84f3dd0314c0f7b2291e5b200ac8c7c3b92560405160405180910390a45050565b6000610eb282610d7a565b610ef1576040517f08c379a0000000000000000000000000000000000000000000000000000000008152600401610ee8906128f6565b60405180910390fd5b6000610efc836107fc565b90508073ffffffffffffffffffffffffffffffffffffffff168473ffffffffffffffffffffffffffffffffffffffff161480610f6b57508373ffffffffffffffffffffffffffffffffffffffff16610f53846104f1565b73ffffffffffffffffffffffffffffffffffffffff16145b80610f7c5750610f7b8185610c7c565b5b91505092915050565b8273ffffffffffffffffffffffffffffffffffffffff16610fa5826107fc565b73ffffffffffffffffffffffffffffffffffffffff1614610ffb576040517f08c379a0000000000000000000000000000000000000000000000000000000008152600401610ff2906129f6565b60405180910390fd5b600073ffffffffffffffffffffffffffffffffffffffff168273ffffffffffffffffffffffffffffffffffffffff16141561106b576040517f08c379a0000000000000000000000000000000000000000000000000000000008152600401611062906128b6565b60405180910390fd5b61107683838361186a565b611081600082610dee565b6001600360008573ffffffffffffffffffffffffffffffffffffffff1673ffffffffffffffffffffffffffffffffffffffff16815260200190815260200160002060008282546110d19190612c6c565b925050819055506001600360008473ffffffffffffffffffffffffffffffffffffffff1673ffffffffffffffffffffffffffffffffffffffff16815260200190815260200160002060008282546111289190612b8b565b92505081905550816002600083815260200190815260200160002060006101000a81548173ffffffffffffffffffffffffffffffffffffffff021916908373ffffffffffffffffffffffffffffffffffffffff160217905550808273ffffffffffffffffffffffffffffffffffffffff168473ffffffffffffffffffffffffffffffffffffffff167fddf252ad1be2c89b69c2b068fc378daa952ba7f163c4a11628f55a4df523b3ef60405160405180910390a4505050565b60606000825114156112045760405180602001604052806000815250905061137b565b600060405180606001604052806040815260200161354c60409139905060006003600285516112339190612b8b565b61123d9190612be1565b60046112499190612c12565b9050600060208261125a9190612b8b565b67ffffffffffffffff811115611299577f4e487b7100000000000000000000000000000000000000000000000000000000600052604160045260246000fd5b6040519080825280601f01601f1916602001820160405280156112cb5781602001600182028036833780820191505090505b509050818152600183018586518101602084015b8183101561133a576003830192508251603f8160121c168501518253600182019150603f81600c1c168501518253600182019150603f8160061c168501518253600182019150603f81168501518253600182019150506112df565b60038951066001811461135457600281146113645761136f565b613d3d60f01b600283035261136f565b603d60f81b60018303525b50505050508093505050505b919050565b8173ffffffffffffffffffffffffffffffffffffffff168373ffffffffffffffffffffffffffffffffffffffff1614156113ef576040517f08c379a00000000000000000000000000000000000000000000000000000000081526004016113e6906128d6565b60405180910390fd5b80600560008573ffffffffffffffffffffffffffffffffffffffff1673ffffffffffffffffffffffffffffffffffffffff16815260200190815260200160002060008473ffffffffffffffffffffffffffffffffffffffff1673ffffffffffffffffffffffffffffffffffffffff16815260200190815260200160002060006101000a81548160ff0219169083151502179055508173ffffffffffffffffffffffffffffffffffffffff168373ffffffffffffffffffffffffffffffffffffffff167f17307eab39ab6107e8899845ad3d59bd9653f200f220920489ca2b5937696c31836040516114e09190612839565b60405180910390a3505050565b6114f8848484610f85565b6115048484848461186f565b611543576040517f08c379a000000000000000000000000000000000000000000000000000000000815260040161153a90612876565b60405180910390fd5b50505050565b606060405180602001604052806000815250905090565b606061156b82610d7a565b6115aa576040517f08c379a00000000000000000000000000000000000000000000000000000000081526004016115a190612a16565b60405180910390fd5b60006115b4611549565b905060008151116115d457604051806020016040528060008152506115ff565b806115de84611a06565b6040516020016115ef9291906126ec565b6040516020818303038152906040525b915050919050565b6001816000016000828254019250508190555050565b600081600001549050919050565b611645828260405180602001604052806000815250611bb3565b5050565b60606000821415611691576040518060400160405280600181526020017f300000000000000000000000000000000000000000000000000000000000000081525090506117f1565b600082905060005b600082146116c35780806116ac90612db9565b915050600a826116bc9190612be1565b9150611699565b60008167ffffffffffffffff811115611705577f4e487b7100000000000000000000000000000000000000000000000000000000600052604160045260246000fd5b6040519080825280601f01601f1916602001820160405280156117375781602001600182028036833780820191505090505b5090505b600085146117ea576001826117509190612c6c565b9150600a8561175f9190612e02565b603061176b9190612b8b565b60f81b8183815181106117a7577f4e487b7100000000000000000000000000000000000000000000000000000000600052603260045260246000fd5b60200101907effffffffffffffffffffffffffffffffffffffffffffffffffffffffffffff1916908160001a905350600a856117e39190612be1565b945061173b565b8093505050505b919050565b6117ff82610d7a565b61183e576040517f08c379a000000000000000000000000000000000000000000000000000000000815260040161183590612976565b60405180910390fd5b80600660008481526020019081526020016000209080519060200190611865929190611def565b505050565b505050565b60006118908473ffffffffffffffffffffffffffffffffffffffff16611c0e565b156119f9578373ffffffffffffffffffffffffffffffffffffffff1663150b7a026118b9610de6565b8786866040518563ffffffff1660e01b81526004016118db94939291906127ed565b602060405180830381600087803b1580156118f557600080fd5b505af192505050801561192657506040513d601f19601f82011682018060405250810190611923919061219b565b60015b6119a9573d8060008114611956576040519150601f19603f3d011682016040523d82523d6000602084013e61195b565b606091505b506000815114156119a1576040517f08c379a000000000000000000000000000000000000000000000000000000000815260040161199890612876565b60405180910390fd5b805181602001fd5b63150b7a0260e01b7bffffffffffffffffffffffffffffffffffffffffffffffffffffffff1916817bffffffffffffffffffffffffffffffffffffffffffffffffffffffff1916149150506119fe565b600190505b949350505050565b60606000821415611a4e576040518060400160405280600181526020017f30000000000000000000000000000000000000000000000000000000000000008152509050611bae565b600082905060005b60008214611a80578080611a6990612db9565b915050600a82611a799190612be1565b9150611a56565b60008167ffffffffffffffff811115611ac2577f4e487b7100000000000000000000000000000000000000000000000000000000600052604160045260246000fd5b6040519080825280601f01601f191660200182016040528015611af45781602001600182028036833780820191505090505b5090505b60008514611ba757600182611b0d9190612c6c565b9150600a85611b1c9190612e02565b6030611b289190612b8b565b60f81b818381518110611b64577f4e487b7100000000000000000000000000000000000000000000000000000000600052603260045260246000fd5b60200101907effffffffffffffffffffffffffffffffffffffffffffffffffffffffffffff1916908160001a905350600a85611ba09190612be1565b9450611af8565b8093505050505b919050565b611bbd8383611c21565b611bca600084848461186f565b611c09576040517f08c379a0000000000000000000000000000000000000000000000000000000008152600401611c0090612876565b60405180910390fd5b505050565b600080823b905060008111915050919050565b600073ffffffffffffffffffffffffffffffffffffffff168273ffffffffffffffffffffffffffffffffffffffff161415611c91576040517f08c379a0000000000000000000000000000000000000000000000000000000008152600401611c8890612996565b60405180910390fd5b611c9a81610d7a565b15611cda576040517f08c379a0000000000000000000000000000000000000000000000000000000008152600401611cd190612896565b60405180910390fd5b611ce66000838361186a565b6001600360008473ffffffffffffffffffffffffffffffffffffffff1673ffffffffffffffffffffffffffffffffffffffff1681526020019081526020016000206000828254611d369190612b8b565b92505081905550816002600083815260200190815260200160002060006101000a81548173ffffffffffffffffffffffffffffffffffffffff021916908373ffffffffffffffffffffffffffffffffffffffff160217905550808273ffffffffffffffffffffffffffffffffffffffff16600073ffffffffffffffffffffffffffffffffffffffff167fddf252ad1be2c89b69c2b068fc378daa952ba7f163c4a11628f55a4df523b3ef60405160405180910390a45050565b828054611dfb90612d56565b90600052602060002090601f016020900481019282611e1d5760008555611e64565b82601f10611e3657805160ff1916838001178555611e64565b82800160010185558215611e64579182015b82811115611e63578251825591602001919060010190611e48565b5b509050611e719190611e75565b5090565b5b80821115611e8e576000816000905550600101611e76565b5090565b6000611ea5611ea084612ae6565b612ac1565b905082815260208101848484011115611ebd57600080fd5b611ec8848285612d14565b509392505050565b6000611ee3611ede84612b17565b612ac1565b905082815260208101848484011115611efb57600080fd5b611f06848285612d14565b509392505050565b600081359050611f1d816134ef565b92915050565b600081359050611f3281613506565b92915050565b600081359050611f478161351d565b92915050565b600081519050611f5c8161351d565b92915050565b600082601f830112611f7357600080fd5b8135611f83848260208601611e92565b91505092915050565b600082601f830112611f9d57600080fd5b8135611fad848260208601611ed0565b91505092915050565b600081359050611fc581613534565b92915050565b600060208284031215611fdd57600080fd5b6000611feb84828501611f0e565b91505092915050565b6000806040838503121561200757600080fd5b600061201585828601611f0e565b925050602061202685828601611f0e565b9150509250929050565b60008060006060848603121561204557600080fd5b600061205386828701611f0e565b935050602061206486828701611f0e565b925050604061207586828701611fb6565b9150509250925092565b6000806000806080858703121561209557600080fd5b60006120a387828801611f0e565b94505060206120b487828801611f0e565b93505060406120c587828801611fb6565b925050606085013567ffffffffffffffff8111156120e257600080fd5b6120ee87828801611f62565b91505092959194509250565b6000806040838503121561210d57600080fd5b600061211b85828601611f0e565b925050602061212c85828601611f23565b9150509250929050565b6000806040838503121561214957600080fd5b600061215785828601611f0e565b925050602061216885828601611fb6565b9150509250929050565b60006020828403121561218457600080fd5b600061219284828501611f38565b91505092915050565b6000602082840312156121ad57600080fd5b60006121bb84828501611f4d565b91505092915050565b6000602082840312156121d657600080fd5b600082013567ffffffffffffffff8111156121f057600080fd5b6121fc84828501611f8c565b91505092915050565b6000806040838503121561221857600080fd5b600083013567ffffffffffffffff81111561223257600080fd5b61223e85828601611f8c565b925050602083013567ffffffffffffffff81111561225b57600080fd5b61226785828601611f8c565b9150509250929050565b60006020828403121561228357600080fd5b600061229184828501611fb6565b91505092915050565b6122a381612ca0565b82525050565b6122b281612cb2565b82525050565b60006122c382612b48565b6122cd8185612b5e565b93506122dd818560208601612d23565b6122e681612eef565b840191505092915050565b60006122fc82612b53565b6123068185612b6f565b9350612316818560208601612d23565b61231f81612eef565b840191505092915050565b600061233582612b53565b61233f8185612b80565b935061234f818560208601612d23565b80840191505092915050565b6000612368600983612b80565b915061237382612f00565b600982019050919050565b600061238b603283612b6f565b915061239682612f29565b604082019050919050565b60006123ae601c83612b6f565b91506123b982612f78565b602082019050919050565b60006123d1601183612b80565b91506123dc82612fa1565b601182019050919050565b60006123f4600783612b80565b91506123ff82612fca565b600782019050919050565b6000612417600f83612b80565b915061242282612ff3565b600f82019050919050565b600061243a602483612b6f565b91506124458261301c565b604082019050919050565b600061245d601983612b6f565b91506124688261306b565b602082019050919050565b6000612480602c83612b6f565b915061248b82613094565b604082019050919050565b60006124a3600a83612b80565b91506124ae826130e3565b600a82019050919050565b60006124c6600483612b80565b91506124d18261310c565b600482019050919050565b60006124e9603883612b6f565b91506124f482613135565b604082019050919050565b600061250c602a83612b6f565b915061251782613184565b604082019050919050565b600061252f602983612b6f565b915061253a826131d3565b604082019050919050565b6000612552602e83612b6f565b915061255d82613222565b604082019050919050565b6000612575600283612b80565b915061258082613271565b600282019050919050565b6000612598602083612b6f565b91506125a38261329a565b602082019050919050565b60006125bb603183612b6f565b91506125c6826132c3565b604082019050919050565b60006125de602c83612b6f565b91506125e982613312565b604082019050919050565b6000612601602983612b6f565b915061260c82613361565b604082019050919050565b6000612624602f83612b6f565b915061262f826133b0565b604082019050919050565b6000612647602183612b6f565b9150612652826133ff565b604082019050919050565b600061266a601d83612b80565b91506126758261344e565b601d82019050919050565b600061268d603183612b6f565b915061269882613477565b604082019050919050565b60006126b0601183612b80565b91506126bb826134c6565b601182019050919050565b6126cf81612d0a565b82525050565b60006126e1828461232a565b915081905092915050565b60006126f8828561232a565b9150612704828461232a565b91508190509392505050565b600061271b8261235b565b9150612727828661232a565b9150612732826126a3565b915061273d826124b9565b9150612749828561232a565b91506127548261240a565b915061275f826123c4565b915061276a82612496565b9150612776828461232a565b915061278182612568565b9150819050949350505050565b6000612799826123e7565b91506127a5828461232a565b915081905092915050565b60006127bb8261265d565b91506127c7828461232a565b915081905092915050565b60006020820190506127e7600083018461229a565b92915050565b6000608082019050612802600083018761229a565b61280f602083018661229a565b61281c60408301856126c6565b818103606083015261282e81846122b8565b905095945050505050565b600060208201905061284e60008301846122a9565b92915050565b6000602082019050818103600083015261286e81846122f1565b905092915050565b6000602082019050818103600083015261288f8161237e565b9050919050565b600060208201905081810360008301526128af816123a1565b9050919050565b600060208201905081810360008301526128cf8161242d565b9050919050565b600060208201905081810360008301526128ef81612450565b9050919050565b6000602082019050818103600083015261290f81612473565b9050919050565b6000602082019050818103600083015261292f816124dc565b9050919050565b6000602082019050818103600083015261294f816124ff565b9050919050565b6000602082019050818103600083015261296f81612522565b9050919050565b6000602082019050818103600083015261298f81612545565b9050919050565b600060208201905081810360008301526129af8161258b565b9050919050565b600060208201905081810360008301526129cf816125ae565b9050919050565b600060208201905081810360008301526129ef816125d1565b9050919050565b60006020820190508181036000830152612a0f816125f4565b9050919050565b60006020820190508181036000830152612a2f81612617565b9050919050565b60006020820190508181036000830152612a4f8161263a565b9050919050565b60006020820190508181036000830152612a6f81612680565b9050919050565b6000602082019050612a8b60008301846126c6565b92915050565b6000604082019050612aa660008301856126c6565b8181036020830152612ab881846122f1565b90509392505050565b6000612acb612adc565b9050612ad78282612d88565b919050565b6000604051905090565b600067ffffffffffffffff821115612b0157612b00612ec0565b5b612b0a82612eef565b9050602081019050919050565b600067ffffffffffffffff821115612b3257612b31612ec0565b5b612b3b82612eef565b9050602081019050919050565b600081519050919050565b600081519050919050565b600082825260208201905092915050565b600082825260208201905092915050565b600081905092915050565b6000612b9682612d0a565b9150612ba183612d0a565b9250827fffffffffffffffffffffffffffffffffffffffffffffffffffffffffffffffff03821115612bd657612bd5612e33565b5b828201905092915050565b6000612bec82612d0a565b9150612bf783612d0a565b925082612c0757612c06612e62565b5b828204905092915050565b6000612c1d82612d0a565b9150612c2883612d0a565b9250817fffffffffffffffffffffffffffffffffffffffffffffffffffffffffffffffff0483118215151615612c6157612c60612e33565b5b828202905092915050565b6000612c7782612d0a565b9150612c8283612d0a565b925082821015612c9557612c94612e33565b5b828203905092915050565b6000612cab82612cea565b9050919050565b60008115159050919050565b60007fffffffff0000000000000000000000000000000000000000000000000000000082169050919050565b600073ffffffffffffffffffffffffffffffffffffffff82169050919050565b6000819050919050565b82818337600083830152505050565b60005b83811015612d41578082015181840152602081019050612d26565b83811115612d50576000848401525b50505050565b60006002820490506001821680612d6e57607f821691505b60208210811415612d8257612d81612e91565b5b50919050565b612d9182612eef565b810181811067ffffffffffffffff82111715612db057612daf612ec0565b5b80604052505050565b6000612dc482612d0a565b91507fffffffffffffffffffffffffffffffffffffffffffffffffffffffffffffffff821415612df757612df6612e33565b5b600182019050919050565b6000612e0d82612d0a565b9150612e1883612d0a565b925082612e2857612e27612e62565b5b828206905092915050565b7f4e487b7100000000000000000000000000000000000000000000000000000000600052601160045260246000fd5b7f4e487b7100000000000000000000000000000000000000000000000000000000600052601260045260246000fd5b7f4e487b7100000000000000000000000000000000000000000000000000000000600052602260045260246000fd5b7f4e487b7100000000000000000000000000000000000000000000000000000000600052604160045260246000fd5b6000601f19601f8301169050919050565b7f7b226e616d65223a220000000000000000000000000000000000000000000000600082015250565b7f4552433732313a207472616e7366657220746f206e6f6e20455243373231526560008201527f63656976657220696d706c656d656e7465720000000000000000000000000000602082015250565b7f4552433732313a20746f6b656e20616c7265616479206d696e74656400000000600082015250565b7f2c202261747472696275746573223a2222000000000000000000000000000000600082015250565b7f544b2d4e46542d00000000000000000000000000000000000000000000000000600082015250565b7f206261736564206f6e2053564721220000000000000000000000000000000000600082015250565b7f4552433732313a207472616e7366657220746f20746865207a65726f2061646460008201527f7265737300000000000000000000000000000000000000000000000000000000602082015250565b7f4552433732313a20617070726f766520746f2063616c6c657200000000000000600082015250565b7f4552433732313a206f70657261746f7220717565727920666f72206e6f6e657860008201527f697374656e7420746f6b656e0000000000000000000000000000000000000000602082015250565b7f2c22696d616765223a2200000000000000000000000000000000000000000000600082015250565b7f22416e2000000000000000000000000000000000000000000000000000000000600082015250565b7f4552433732313a20617070726f76652063616c6c6572206973206e6f74206f7760008201527f6e6572206e6f7220617070726f76656420666f7220616c6c0000000000000000602082015250565b7f4552433732313a2062616c616e636520717565727920666f7220746865207a6560008201527f726f206164647265737300000000000000000000000000000000000000000000602082015250565b7f4552433732313a206f776e657220717565727920666f72206e6f6e657869737460008201527f656e7420746f6b656e0000000000000000000000000000000000000000000000602082015250565b7f45524337323155524953746f726167653a2055524920736574206f66206e6f6e60008201527f6578697374656e7420746f6b656e000000000000000000000000000000000000602082015250565b7f227d000000000000000000000000000000000000000000000000000000000000600082015250565b7f4552433732313a206d696e7420746f20746865207a65726f2061646472657373600082015250565b7f45524337323155524953746f726167653a2055524920717565727920666f722060008201527f6e6f6e6578697374656e7420746f6b656e000000000000000000000000000000602082015250565b7f4552433732313a20617070726f76656420717565727920666f72206e6f6e657860008201527f697374656e7420746f6b656e0000000000000000000000000000000000000000602082015250565b7f4552433732313a207472616e73666572206f6620746f6b656e2074686174206960008201527f73206e6f74206f776e0000000000000000000000000000000000000000000000602082015250565b7f4552433732314d657461646174613a2055524920717565727920666f72206e6f60008201527f6e6578697374656e7420746f6b656e0000000000000000000000000000000000602082015250565b7f4552433732313a20617070726f76616c20746f2063757272656e74206f776e6560008201527f7200000000000000000000000000000000000000000000000000000000000000602082015250565b7f646174613a6170706c69636174696f6e2f6a736f6e3b6261736536342c000000600082015250565b7f4552433732313a207472616e736665722063616c6c6572206973206e6f74206f60008201527f776e6572206e6f7220617070726f766564000000000000000000000000000000602082015250565b7f222c20226465736372697074696f6e223a000000000000000000000000000000600082015250565b6134f881612ca0565b811461350357600080fd5b50565b61350f81612cb2565b811461351a57600080fd5b50565b61352681612cbe565b811461353157600080fd5b50565b61353d81612d0a565b811461354857600080fd5b5056fe4142434445464748494a4b4c4d4e4f505152535455565758595a6162636465666768696a6b6c6d6e6f707172737475767778797a303132333435363738392b2fa2646970667358221220e2d38f60d28eae1865f3d5f751e5310b6faf3c68221a2c0d1ad1da55c6be012d64736f6c63430008040033",
  "devdoc": {
    "kind": "dev",
    "methods": {
      "approve(address,uint256)": {
        "details": "See {IERC721-approve}."
      },
      "balanceOf(address)": {
        "details": "See {IERC721-balanceOf}."
      },
      "getApproved(uint256)": {
        "details": "See {IERC721-getApproved}."
      },
      "isApprovedForAll(address,address)": {
        "details": "See {IERC721-isApprovedForAll}."
      },
      "name()": {
        "details": "See {IERC721Metadata-name}."
      },
      "ownerOf(uint256)": {
        "details": "See {IERC721-ownerOf}."
      },
      "safeTransferFrom(address,address,uint256)": {
        "details": "See {IERC721-safeTransferFrom}."
      },
      "safeTransferFrom(address,address,uint256,bytes)": {
        "details": "See {IERC721-safeTransferFrom}."
      },
      "setApprovalForAll(address,bool)": {
        "details": "See {IERC721-setApprovalForAll}."
      },
      "supportsInterface(bytes4)": {
        "details": "See {IERC165-supportsInterface}."
      },
      "symbol()": {
        "details": "See {IERC721Metadata-symbol}."
      },
      "tokenURI(uint256)": {
        "details": "See {IERC721Metadata-tokenURI}."
      },
      "transferFrom(address,address,uint256)": {
        "details": "See {IERC721-transferFrom}."
      }
    },
    "version": 1
  },
  "userdoc": {
    "kind": "user",
    "methods": {},
    "version": 1
  },
  "storageLayout": {
    "storage": [
      {
        "astId": 25,
        "contract": "contracts/SVGNTF.sol:SVGNTF",
        "label": "_name",
        "offset": 0,
        "slot": "0",
        "type": "t_string_storage"
      },
      {
        "astId": 27,
        "contract": "contracts/SVGNTF.sol:SVGNTF",
        "label": "_symbol",
        "offset": 0,
        "slot": "1",
        "type": "t_string_storage"
      },
      {
        "astId": 31,
        "contract": "contracts/SVGNTF.sol:SVGNTF",
        "label": "_owners",
        "offset": 0,
        "slot": "2",
        "type": "t_mapping(t_uint256,t_address)"
      },
      {
        "astId": 35,
        "contract": "contracts/SVGNTF.sol:SVGNTF",
        "label": "_balances",
        "offset": 0,
        "slot": "3",
        "type": "t_mapping(t_address,t_uint256)"
      },
      {
        "astId": 39,
        "contract": "contracts/SVGNTF.sol:SVGNTF",
        "label": "_tokenApprovals",
        "offset": 0,
        "slot": "4",
        "type": "t_mapping(t_uint256,t_address)"
      },
      {
        "astId": 45,
        "contract": "contracts/SVGNTF.sol:SVGNTF",
        "label": "_operatorApprovals",
        "offset": 0,
        "slot": "5",
        "type": "t_mapping(t_address,t_mapping(t_address,t_bool))"
      },
      {
        "astId": 977,
        "contract": "contracts/SVGNTF.sol:SVGNTF",
        "label": "_tokenURIs",
        "offset": 0,
        "slot": "6",
        "type": "t_mapping(t_uint256,t_string_storage)"
      },
      {
        "astId": 1882,
        "contract": "contracts/SVGNTF.sol:SVGNTF",
        "label": "_tokenIds",
        "offset": 0,
        "slot": "7",
        "type": "t_struct(Counter)1444_storage"
      }
    ],
    "types": {
      "t_address": {
        "encoding": "inplace",
        "label": "address",
        "numberOfBytes": "20"
      },
      "t_bool": {
        "encoding": "inplace",
        "label": "bool",
        "numberOfBytes": "1"
      },
      "t_mapping(t_address,t_bool)": {
        "encoding": "mapping",
        "key": "t_address",
        "label": "mapping(address => bool)",
        "numberOfBytes": "32",
        "value": "t_bool"
      },
      "t_mapping(t_address,t_mapping(t_address,t_bool))": {
        "encoding": "mapping",
        "key": "t_address",
        "label": "mapping(address => mapping(address => bool))",
        "numberOfBytes": "32",
        "value": "t_mapping(t_address,t_bool)"
      },
      "t_mapping(t_address,t_uint256)": {
        "encoding": "mapping",
        "key": "t_address",
        "label": "mapping(address => uint256)",
        "numberOfBytes": "32",
        "value": "t_uint256"
      },
      "t_mapping(t_uint256,t_address)": {
        "encoding": "mapping",
        "key": "t_uint256",
        "label": "mapping(uint256 => address)",
        "numberOfBytes": "32",
        "value": "t_address"
      },
      "t_mapping(t_uint256,t_string_storage)": {
        "encoding": "mapping",
        "key": "t_uint256",
        "label": "mapping(uint256 => string)",
        "numberOfBytes": "32",
        "value": "t_string_storage"
      },
      "t_string_storage": {
        "encoding": "bytes",
        "label": "string",
        "numberOfBytes": "32"
      },
      "t_struct(Counter)1444_storage": {
        "encoding": "inplace",
        "label": "struct Counters.Counter",
        "members": [
          {
            "astId": 1443,
            "contract": "contracts/SVGNTF.sol:SVGNTF",
            "label": "_value",
            "offset": 0,
            "slot": "0",
            "type": "t_uint256"
          }
        ],
        "numberOfBytes": "32"
      },
      "t_uint256": {
        "encoding": "inplace",
        "label": "uint256",
        "numberOfBytes": "32"
      }
    }
  }
}