{
  "contractName": "HelloWorld",
  "abi": [
    {
      "inputs": [
        {
          "internalType": "string",
          "name": "_name",
          "type": "string"
        }
      ],
      "name": "setName",
      "outputs": [],
      "stateMutability": "nonpayable",
      "type": "function"
    }
  ],
  "bytecode": "0x608060405234801561001057600080fd5b50610343806100206000396000f3fe608060405234801561001057600080fd5b506004361061002b5760003560e01c8063c47f002714610030575b600080fd5b61004a60048036038101906100459190610263565b61004c565b005b8060019080519060200190610062929190610066565b5050565b828054610072906102db565b90600052602060002090601f01602090048101928261009457600085556100db565b82601f106100ad57805160ff19168380011785556100db565b828001600101855582156100db579182015b828111156100da5782518255916020019190600101906100bf565b5b5090506100e891906100ec565b5090565b5b808211156101055760008160009055506001016100ed565b5090565b6000604051905090565b600080fd5b600080fd5b600080fd5b600080fd5b6000601f19601f8301169050919050565b7f4e487b7100000000000000000000000000000000000000000000000000000000600052604160045260246000fd5b61017082610127565b810181811067ffffffffffffffff8211171561018f5761018e610138565b5b80604052505050565b60006101a2610109565b90506101ae8282610167565b919050565b600067ffffffffffffffff8211156101ce576101cd610138565b5b6101d782610127565b9050602081019050919050565b82818337600083830152505050565b6000610206610201846101b3565b610198565b90508281526020810184848401111561022257610221610122565b5b61022d8482856101e4565b509392505050565b600082601f83011261024a5761024961011d565b5b813561025a8482602086016101f3565b91505092915050565b60006020828403121561027957610278610113565b5b600082013567ffffffffffffffff81111561029757610296610118565b5b6102a384828501610235565b91505092915050565b7f4e487b7100000000000000000000000000000000000000000000000000000000600052602260045260246000fd5b600060028204905060018216806102f357607f821691505b60208210811415610307576103066102ac565b5b5091905056fea264697066735822122056553bbb5a862a427e18b669f2a89b239a1078aca5d04ef95a72db2dbd29f8d264736f6c634300080b0033",
  "immutableReferences": {},
  "source": "// SPDX-License-Identifier: MIT\npragma solidity >=0.4.22 <0.9.0;\n\ncontract HelloWorld {\n    uint age;\n    string name;\n\n    function setName( string memory _name) public{\n        name=_name; \n    }\n}",
  "sourcePath": "/home/node01/truffle/contracts/hello.sol",
  "compiler": {
    "name": "solc",
    "version": "0.8.11+commit.d7f03943.Emscripten.clang"
  },
  "schemaVersion": "3.4.4",
  "updatedAt": "2022-01-27T10:20:06.886Z",
  "networkType": "ethereum",
  "devdoc": {
    "kind": "dev",
    "methods": {},
    "version": 1
  },
  "userdoc": {
    "kind": "user",
    "methods": {},
    "version": 1
  }
}