{
    "contractName": "SVGNTF",
    "abi": [
        {
            "inputs": [
                {
                    "internalType": "address",
                    "name": "_contractData",
                    "type": "address"
                }
            ],
            "stateMutability": "nonpayable",
            "type": "constructor"
        },
        {
            "anonymous": false,
            "inputs": [
                {
                    "indexed": true,
                    "internalType": "address",
                    "name": "owner",
                    "type": "address"
                },
                {
                    "indexed": true,
                    "internalType": "address",
                    "name": "approved",
                    "type": "address"
                },
                {
                    "indexed": true,
                    "internalType": "uint256",
                    "name": "tokenId",
                    "type": "uint256"
                }
            ],
            "name": "Approval",
            "type": "event"
        },
        {
            "anonymous": false,
            "inputs": [
                {
                    "indexed": true,
                    "internalType": "address",
                    "name": "owner",
                    "type": "address"
                },
                {
                    "indexed": true,
                    "internalType": "address",
                    "name": "operator",
                    "type": "address"
                },
                {
                    "indexed": false,
                    "internalType": "bool",
                    "name": "approved",
                    "type": "bool"
                }
            ],
            "name": "ApprovalForAll",
            "type": "event"
        },
        {
            "anonymous": false,
            "inputs": [
                {
                    "indexed": false,
                    "internalType": "uint256",
                    "name": "index",
                    "type": "uint256"
                },
                {
                    "indexed": false,
                    "internalType": "string",
                    "name": "tokenURI",
                    "type": "string"
                }
            ],
            "name": "CreateSVGNFT",
            "type": "event"
        },
        {
            "anonymous": false,
            "inputs": [
                {
                    "indexed": true,
                    "internalType": "address",
                    "name": "from",
                    "type": "address"
                },
                {
                    "indexed": true,
                    "internalType": "address",
                    "name": "to",
                    "type": "address"
                },
                {
                    "indexed": true,
                    "internalType": "uint256",
                    "name": "tokenId",
                    "type": "uint256"
                }
            ],
            "name": "Transfer",
            "type": "event"
        },
        {
            "inputs": [
                {
                    "internalType": "address",
                    "name": "to",
                    "type": "address"
                },
                {
                    "internalType": "uint256",
                    "name": "tokenId",
                    "type": "uint256"
                }
            ],
            "name": "approve",
            "outputs": [],
            "stateMutability": "nonpayable",
            "type": "function"
        },
        {
            "inputs": [
                {
                    "internalType": "address",
                    "name": "owner",
                    "type": "address"
                }
            ],
            "name": "balanceOf",
            "outputs": [
                {
                    "internalType": "uint256",
                    "name": "",
                    "type": "uint256"
                }
            ],
            "stateMutability": "view",
            "type": "function"
        },
        {
            "inputs": [
                {
                    "internalType": "string",
                    "name": "svg",
                    "type": "string"
                }
            ],
            "name": "createNFT",
            "outputs": [
                {
                    "internalType": "uint256",
                    "name": "",
                    "type": "uint256"
                }
            ],
            "stateMutability": "nonpayable",
            "type": "function"
        },
        {
            "inputs": [
                {
                    "internalType": "uint256",
                    "name": "tokenId",
                    "type": "uint256"
                }
            ],
            "name": "getApproved",
            "outputs": [
                {
                    "internalType": "address",
                    "name": "",
                    "type": "address"
                }
            ],
            "stateMutability": "view",
            "type": "function"
        },
        {
            "inputs": [
                {
                    "internalType": "address",
                    "name": "owner",
                    "type": "address"
                },
                {
                    "internalType": "address",
                    "name": "operator",
                    "type": "address"
                }
            ],
            "name": "isApprovedForAll",
            "outputs": [
                {
                    "internalType": "bool",
                    "name": "",
                    "type": "bool"
                }
            ],
            "stateMutability": "view",
            "type": "function"
        },
        {
            "inputs": [],
            "name": "name",
            "outputs": [
                {
                    "internalType": "string",
                    "name": "",
                    "type": "string"
                }
            ],
            "stateMutability": "view",
            "type": "function"
        },
        {
            "inputs": [
                {
                    "internalType": "uint256",
                    "name": "tokenId",
                    "type": "uint256"
                }
            ],
            "name": "ownerOf",
            "outputs": [
                {
                    "internalType": "address",
                    "name": "",
                    "type": "address"
                }
            ],
            "stateMutability": "view",
            "type": "function"
        },
        {
            "inputs": [
                {
                    "internalType": "address",
                    "name": "from",
                    "type": "address"
                },
                {
                    "internalType": "address",
                    "name": "to",
                    "type": "address"
                },
                {
                    "internalType": "uint256",
                    "name": "tokenId",
                    "type": "uint256"
                }
            ],
            "name": "safeTransferFrom",
            "outputs": [],
            "stateMutability": "nonpayable",
            "type": "function"
        },
        {
            "inputs": [
                {
                    "internalType": "address",
                    "name": "from",
                    "type": "address"
                },
                {
                    "internalType": "address",
                    "name": "to",
                    "type": "address"
                },
                {
                    "internalType": "uint256",
                    "name": "tokenId",
                    "type": "uint256"
                },
                {
                    "internalType": "bytes",
                    "name": "_data",
                    "type": "bytes"
                }
            ],
            "name": "safeTransferFrom",
            "outputs": [],
            "stateMutability": "nonpayable",
            "type": "function"
        },
        {
            "inputs": [
                {
                    "internalType": "address",
                    "name": "operator",
                    "type": "address"
                },
                {
                    "internalType": "bool",
                    "name": "approved",
                    "type": "bool"
                }
            ],
            "name": "setApprovalForAll",
            "outputs": [],
            "stateMutability": "nonpayable",
            "type": "function"
        },
        {
            "inputs": [
                {
                    "internalType": "bytes4",
                    "name": "interfaceId",
                    "type": "bytes4"
                }
            ],
            "name": "supportsInterface",
            "outputs": [
                {
                    "internalType": "bool",
                    "name": "",
                    "type": "bool"
                }
            ],
            "stateMutability": "view",
            "type": "function"
        },
        {
            "inputs": [],
            "name": "symbol",
            "outputs": [
                {
                    "internalType": "string",
                    "name": "",
                    "type": "string"
                }
            ],
            "stateMutability": "view",
            "type": "function"
        },
        {
            "inputs": [
                {
                    "internalType": "uint256",
                    "name": "tokenId",
                    "type": "uint256"
                }
            ],
            "name": "tokenURI",
            "outputs": [
                {
                    "internalType": "string",
                    "name": "",
                    "type": "string"
                }
            ],
            "stateMutability": "view",
            "type": "function"
        },
        {
            "inputs": [
                {
                    "internalType": "address",
                    "name": "from",
                    "type": "address"
                },
                {
                    "internalType": "address",
                    "name": "to",
                    "type": "address"
                },
                {
                    "internalType": "uint256",
                    "name": "tokenId",
                    "type": "uint256"
                }
            ],
            "name": "transferFrom",
            "outputs": [],
            "stateMutability": "nonpayable",
            "type": "function"
        }
    ],
    "bytecode": "60806040523480156200001157600080fd5b5060405162001cd138038062001cd1833981016040819052620000349162000170565b604080518082018252600e81526d029ab2390272a23102a37b5b2b7160951b6020808301918252835180850190945260088452671512d4d591d3919560c21b9084015281519192916200008a91600091620000ca565b508051620000a0906001906020840190620000ca565b5050600880546001600160a01b0319166001600160a01b03939093169290921790915550620001df565b828054620000d890620001a2565b90600052602060002090601f016020900481019282620000fc576000855562000147565b82601f106200011757805160ff191683800117855562000147565b8280016001018555821562000147579182015b82811115620001475782518255916020019190600101906200012a565b506200015592915062000159565b5090565b5b808211156200015557600081556001016200015a565b6000602082840312156200018357600080fd5b81516001600160a01b03811681146200019b57600080fd5b9392505050565b600181811c90821680620001b757607f821691505b60208210811415620001d957634e487b7160e01b600052602260045260246000fd5b50919050565b611ae280620001ef6000396000f3fe608060405234801561001057600080fd5b50600436106100ea5760003560e01c806370a082311161008c578063b88d4fde11610066578063b88d4fde146101e1578063c87b56dd146101f4578063da2ed03e14610207578063e985e9c51461021a57600080fd5b806370a08231146101a557806395d89b41146101c6578063a22cb465146101ce57600080fd5b8063095ea7b3116100c8578063095ea7b31461015757806323b872dd1461016c57806342842e0e1461017f5780636352211e1461019257600080fd5b806301ffc9a7146100ef57806306fdde0314610117578063081812fc1461012c575b600080fd5b6101026100fd366004611459565b610256565b60405190151581526020015b60405180910390f35b61011f6102a8565b60405161010e91906114ce565b61013f61013a3660046114e1565b61033a565b6040516001600160a01b03909116815260200161010e565b61016a610165366004611516565b6103c7565b005b61016a61017a366004611540565b6104dd565b61016a61018d366004611540565b61050e565b61013f6101a03660046114e1565b610529565b6101b86101b336600461157c565b6105a0565b60405190815260200161010e565b61011f610627565b61016a6101dc366004611597565b610636565b61016a6101ef366004611680565b610645565b61011f6102023660046114e1565b61067d565b6101b86102153660046116fc565b6107f4565b610102610228366004611745565b6001600160a01b03918216600090815260056020908152604080832093909416825291909152205460ff1690565b60006001600160e01b031982166380ac58cd60e01b148061028757506001600160e01b03198216635b5e139f60e01b145b806102a257506301ffc9a760e01b6001600160e01b03198316145b92915050565b6060600080546102b790611778565b80601f01602080910402602001604051908101604052809291908181526020018280546102e390611778565b80156103305780601f1061030557610100808354040283529160200191610330565b820191906000526020600020905b81548152906001019060200180831161031357829003601f168201915b5050505050905090565b6000610345826109b7565b6103ab5760405162461bcd60e51b815260206004820152602c60248201527f4552433732313a20617070726f76656420717565727920666f72206e6f6e657860448201526b34b9ba32b73a103a37b5b2b760a11b60648201526084015b60405180910390fd5b506000908152600460205260409020546001600160a01b031690565b60006103d282610529565b9050806001600160a01b0316836001600160a01b031614156104405760405162461bcd60e51b815260206004820152602160248201527f4552433732313a20617070726f76616c20746f2063757272656e74206f776e656044820152603960f91b60648201526084016103a2565b336001600160a01b038216148061045c575061045c8133610228565b6104ce5760405162461bcd60e51b815260206004820152603860248201527f4552433732313a20617070726f76652063616c6c6572206973206e6f74206f7760448201527f6e6572206e6f7220617070726f76656420666f7220616c6c000000000000000060648201526084016103a2565b6104d883836109d4565b505050565b6104e73382610a42565b6105035760405162461bcd60e51b81526004016103a2906117b3565b6104d8838383610b28565b6104d883838360405180602001604052806000815250610645565b6000818152600260205260408120546001600160a01b0316806102a25760405162461bcd60e51b815260206004820152602960248201527f4552433732313a206f776e657220717565727920666f72206e6f6e657869737460448201526832b73a103a37b5b2b760b91b60648201526084016103a2565b60006001600160a01b03821661060b5760405162461bcd60e51b815260206004820152602a60248201527f4552433732313a2062616c616e636520717565727920666f7220746865207a65604482015269726f206164647265737360b01b60648201526084016103a2565b506001600160a01b031660009081526003602052604090205490565b6060600180546102b790611778565b610641338383610cc8565b5050565b61064f3383610a42565b61066b5760405162461bcd60e51b81526004016103a2906117b3565b61067784848484610d97565b50505050565b6060610688826109b7565b6106ee5760405162461bcd60e51b815260206004820152603160248201527f45524337323155524953746f726167653a2055524920717565727920666f72206044820152703737b732bc34b9ba32b73a103a37b5b2b760791b60648201526084016103a2565b6000828152600660205260408120805461070790611778565b80601f016020809104026020016040519081016040528092919081815260200182805461073390611778565b80156107805780601f1061075557610100808354040283529160200191610780565b820191906000526020600020905b81548152906001019060200180831161076357829003601f168201915b50505050509050600061079e60408051602081019091526000815290565b90508051600014156107b1575092915050565b8151156107e35780826040516020016107cb929190611804565b60405160208183030381529060405292505050919050565b6107ec84610dca565b949350505050565b6000610804600780546001019055565b600061080f60075490565b905061081b3382610ea2565b600854604051636c6e350760e01b815260009173__$70fd82638a69f39800dc4e3bf224f5a467$__91636c6e350791610864916001600160a01b03909116908890600401611833565b600060405180830381865af4158015610881573d6000803e3d6000fd5b505050506040513d6000823e601f3d908101601f191682016040526108a99190810190611857565b905060006108b683610ebc565b6040516020016108c691906118ce565b60408051601f198184030181529082905260085460016210d5ef60e11b0319835290925060009173__$70fd82638a69f39800dc4e3bf224f5a467$__9163ffde542291610923916001600160a01b031690869088906004016118fd565b600060405180830381865af4158015610940573d6000803e3d6000fd5b505050506040513d6000823e601f3d908101601f191682016040526109689190810190611857565b90506109748482610fba565b7fe11a3774b7d072913f405e8ee273b13461fdc2b88d5b8eb679837ae65508e46c84826040516109a592919061193d565b60405180910390a15091949350505050565b6000908152600260205260409020546001600160a01b0316151590565b600081815260046020526040902080546001600160a01b0319166001600160a01b0384169081179091558190610a0982610529565b6001600160a01b03167f8c5be1e5ebec7d5bd14f71427d1e84f3dd0314c0f7b2291e5b200ac8c7c3b92560405160405180910390a45050565b6000610a4d826109b7565b610aae5760405162461bcd60e51b815260206004820152602c60248201527f4552433732313a206f70657261746f7220717565727920666f72206e6f6e657860448201526b34b9ba32b73a103a37b5b2b760a11b60648201526084016103a2565b6000610ab983610529565b9050806001600160a01b0316846001600160a01b03161480610af45750836001600160a01b0316610ae98461033a565b6001600160a01b0316145b806107ec57506001600160a01b0380821660009081526005602090815260408083209388168352929052205460ff166107ec565b826001600160a01b0316610b3b82610529565b6001600160a01b031614610ba35760405162461bcd60e51b815260206004820152602960248201527f4552433732313a207472616e73666572206f6620746f6b656e2074686174206960448201526839903737ba1037bbb760b91b60648201526084016103a2565b6001600160a01b038216610c055760405162461bcd60e51b8152602060048201526024808201527f4552433732313a207472616e7366657220746f20746865207a65726f206164646044820152637265737360e01b60648201526084016103a2565b610c106000826109d4565b6001600160a01b0383166000908152600360205260408120805460019290610c3990849061196c565b90915550506001600160a01b0382166000908152600360205260408120805460019290610c67908490611983565b909155505060008181526002602052604080822080546001600160a01b0319166001600160a01b0386811691821790925591518493918716917fddf252ad1be2c89b69c2b068fc378daa952ba7f163c4a11628f55a4df523b3ef91a4505050565b816001600160a01b0316836001600160a01b03161415610d2a5760405162461bcd60e51b815260206004820152601960248201527f4552433732313a20617070726f766520746f2063616c6c65720000000000000060448201526064016103a2565b6001600160a01b03838116600081815260056020908152604080832094871680845294825291829020805460ff191686151590811790915591519182527f17307eab39ab6107e8899845ad3d59bd9653f200f220920489ca2b5937696c31910160405180910390a3505050565b610da2848484610b28565b610dae84848484611045565b6106775760405162461bcd60e51b81526004016103a29061199b565b6060610dd5826109b7565b610e395760405162461bcd60e51b815260206004820152602f60248201527f4552433732314d657461646174613a2055524920717565727920666f72206e6f60448201526e3732bc34b9ba32b73a103a37b5b2b760891b60648201526084016103a2565b6000610e5060408051602081019091526000815290565b90506000815111610e705760405180602001604052806000815250610e9b565b80610e7a84611143565b604051602001610e8b929190611804565b6040516020818303038152906040525b9392505050565b610641828260405180602001604052806000815250611241565b606081610ee05750506040805180820190915260018152600360fc1b602082015290565b8160005b8115610f0a5780610ef4816119ed565b9150610f039050600a83611a1e565b9150610ee4565b60008167ffffffffffffffff811115610f2557610f256115d3565b6040519080825280601f01601f191660200182016040528015610f4f576020820181803683370190505b5090505b84156107ec57610f6460018361196c565b9150610f71600a86611a32565b610f7c906030611983565b60f81b818381518110610f9157610f91611a46565b60200101906001600160f81b031916908160001a905350610fb3600a86611a1e565b9450610f53565b610fc3826109b7565b6110265760405162461bcd60e51b815260206004820152602e60248201527f45524337323155524953746f726167653a2055524920736574206f66206e6f6e60448201526d32bc34b9ba32b73a103a37b5b2b760911b60648201526084016103a2565b600082815260066020908152604090912082516104d8928401906113a7565b60006001600160a01b0384163b1561113857604051630a85bd0160e11b81526001600160a01b0385169063150b7a0290611089903390899088908890600401611a5c565b6020604051808303816000875af19250505080156110c4575060408051601f3d908101601f191682019092526110c191810190611a8f565b60015b61111e573d8080156110f2576040519150601f19603f3d011682016040523d82523d6000602084013e6110f7565b606091505b5080516111165760405162461bcd60e51b81526004016103a29061199b565b805181602001fd5b6001600160e01b031916630a85bd0160e11b1490506107ec565b506001949350505050565b6060816111675750506040805180820190915260018152600360fc1b602082015290565b8160005b8115611191578061117b816119ed565b915061118a9050600a83611a1e565b915061116b565b60008167ffffffffffffffff8111156111ac576111ac6115d3565b6040519080825280601f01601f1916602001820160405280156111d6576020820181803683370190505b5090505b84156107ec576111eb60018361196c565b91506111f8600a86611a32565b611203906030611983565b60f81b81838151811061121857611218611a46565b60200101906001600160f81b031916908160001a90535061123a600a86611a1e565b94506111da565b61124b8383611274565b6112586000848484611045565b6104d85760405162461bcd60e51b81526004016103a29061199b565b6001600160a01b0382166112ca5760405162461bcd60e51b815260206004820181905260248201527f4552433732313a206d696e7420746f20746865207a65726f206164647265737360448201526064016103a2565b6112d3816109b7565b156113205760405162461bcd60e51b815260206004820152601c60248201527f4552433732313a20746f6b656e20616c7265616479206d696e7465640000000060448201526064016103a2565b6001600160a01b0382166000908152600360205260408120805460019290611349908490611983565b909155505060008181526002602052604080822080546001600160a01b0319166001600160a01b03861690811790915590518392907fddf252ad1be2c89b69c2b068fc378daa952ba7f163c4a11628f55a4df523b3ef908290a45050565b8280546113b390611778565b90600052602060002090601f0160209004810192826113d5576000855561141b565b82601f106113ee57805160ff191683800117855561141b565b8280016001018555821561141b579182015b8281111561141b578251825591602001919060010190611400565b5061142792915061142b565b5090565b5b80821115611427576000815560010161142c565b6001600160e01b03198116811461145657600080fd5b50565b60006020828403121561146b57600080fd5b8135610e9b81611440565b60005b83811015611491578181015183820152602001611479565b838111156106775750506000910152565b600081518084526114ba816020860160208601611476565b601f01601f19169290920160200192915050565b602081526000610e9b60208301846114a2565b6000602082840312156114f357600080fd5b5035919050565b80356001600160a01b038116811461151157600080fd5b919050565b6000806040838503121561152957600080fd5b611532836114fa565b946020939093013593505050565b60008060006060848603121561155557600080fd5b61155e846114fa565b925061156c602085016114fa565b9150604084013590509250925092565b60006020828403121561158e57600080fd5b610e9b826114fa565b600080604083850312156115aa57600080fd5b6115b3836114fa565b9150602083013580151581146115c857600080fd5b809150509250929050565b634e487b7160e01b600052604160045260246000fd5b604051601f8201601f1916810167ffffffffffffffff81118282101715611612576116126115d3565b604052919050565b600067ffffffffffffffff821115611634576116346115d3565b50601f01601f191660200190565b60006116556116508461161a565b6115e9565b905082815283838301111561166957600080fd5b828260208301376000602084830101529392505050565b6000806000806080858703121561169657600080fd5b61169f856114fa565b93506116ad602086016114fa565b925060408501359150606085013567ffffffffffffffff8111156116d057600080fd5b8501601f810187136116e157600080fd5b6116f087823560208401611642565b91505092959194509250565b60006020828403121561170e57600080fd5b813567ffffffffffffffff81111561172557600080fd5b8201601f8101841361173657600080fd5b6107ec84823560208401611642565b6000806040838503121561175857600080fd5b611761836114fa565b915061176f602084016114fa565b90509250929050565b600181811c9082168061178c57607f821691505b602082108114156117ad57634e487b7160e01b600052602260045260246000fd5b50919050565b60208082526031908201527f4552433732313a207472616e736665722063616c6c6572206973206e6f74206f6040820152701ddb995c881b9bdc88185c1c1c9bdd9959607a1b606082015260800190565b60008351611816818460208801611476565b83519083019061182a818360208801611476565b01949350505050565b6001600160a01b03831681526040602082018190526000906107ec908301846114a2565b60006020828403121561186957600080fd5b815167ffffffffffffffff81111561188057600080fd5b8201601f8101841361189157600080fd5b805161189f6116508261161a565b8181528560208385010111156118b457600080fd5b6118c5826020830160208601611476565b95945050505050565b66544b2d4e46542d60c81b8152600082516118f0816007850160208701611476565b9190910160070192915050565b6001600160a01b0384168152606060208201819052600090611921908301856114a2565b828103604084015261193381856114a2565b9695505050505050565b8281526040602082015260006107ec60408301846114a2565b634e487b7160e01b600052601160045260246000fd5b60008282101561197e5761197e611956565b500390565b6000821982111561199657611996611956565b500190565b60208082526032908201527f4552433732313a207472616e7366657220746f206e6f6e20455243373231526560408201527131b2b4bb32b91034b6b83632b6b2b73a32b960711b606082015260800190565b6000600019821415611a0157611a01611956565b5060010190565b634e487b7160e01b600052601260045260246000fd5b600082611a2d57611a2d611a08565b500490565b600082611a4157611a41611a08565b500690565b634e487b7160e01b600052603260045260246000fd5b6001600160a01b0385811682528416602082015260408101839052608060608201819052600090611933908301846114a2565b600060208284031215611aa157600080fd5b8151610e9b8161144056fea2646970667358221220d916a8d2bf25cc300094c9a5e98c111bf2f2ef49cdd8a4b81e5ffd0fa221dd3e64736f6c634300080b0033",
    "sourcePath": "/home/node01/contract/NFT-OpenSea/contracts/SVGNTF.sol",
    "compiler": {
        "name": "solc",
        "version": "0.8.11+commit.d7f03943"
    },
    "functionHashes": {
        "approve(address,uint256)": "095ea7b3",
        "balanceOf(address)": "70a08231",
        "createNFT(string)": "da2ed03e",
        "getApproved(uint256)": "081812fc",
        "isApprovedForAll(address,address)": "e985e9c5",
        "name()": "06fdde03",
        "ownerOf(uint256)": "6352211e",
        "safeTransferFrom(address,address,uint256)": "42842e0e",
        "safeTransferFrom(address,address,uint256,bytes)": "b88d4fde",
        "setApprovalForAll(address,bool)": "a22cb465",
        "supportsInterface(bytes4)": "01ffc9a7",
        "symbol()": "95d89b41",
        "tokenURI(uint256)": "c87b56dd",
        "transferFrom(address,address,uint256)": "23b872dd"
    },
    "gasEstimates": {
        "creation": {
            "codeDepositCost": "1376400",
            "executionCost": "infinite",
            "totalCost": "infinite"
        },
        "external": {
            "approve(address,uint256)": "infinite",
            "balanceOf(address)": "2612",
            "createNFT(string)": "infinite",
            "getApproved(uint256)": "4799",
            "isApprovedForAll(address,address)": "infinite",
            "name()": "infinite",
            "ownerOf(uint256)": "2645",
            "safeTransferFrom(address,address,uint256)": "infinite",
            "safeTransferFrom(address,address,uint256,bytes)": "infinite",
            "setApprovalForAll(address,bool)": "26753",
            "supportsInterface(bytes4)": "534",
            "symbol()": "infinite",
            "tokenURI(uint256)": "infinite",
            "transferFrom(address,address,uint256)": "infinite"
        }
    }
}